S016000050696E67506F6E675F6E6F6465312E73726563B6
S11300000C9484020C94AC030C94A1020C94A102F1
S11300100C94A1020C94A1020C94A1020C94A102D0
S11300200C94A1020C94A1020C94A1020C94A102C0
S11300300C94A1020C94A1020C94A1020C94A102B0
S11300400C94A1020C94A1020C94A1020C94A102A0
S11300500C94A1020C94A1020C94A1020C94A10290
S11300600C94A1020C94A1020C94A1020C94A10280
S1130070000000000000000000000000000000007C
S1130080000000000000000000000000000000006C
S1130090060909060000000000000000000000003E
S11300A0000000000000000000000000000000004C
S11300B00C122121120C00000000000000000000BE
S11300C0000000000000000000000000000000002C
S11300D03C4281818181423C00000000000000001C
S11300E0000000000000000000000000000000000C
S11300F078840201010101028478000000000000FC
S113010000000102020202010000000000000000E1
S1130110F804020101010101010204F800000000D9
S1130120010204080808080808040201000000008D
S1130130F0080402010101010101020408F00000B9
S113014003040810202020202020100804030000AD
S113015000000000F0FCFFFFFFFFFFFFFFFFFFFFB9
S1130160FCF0F0F0F0F000000000F0FCFFFFFFFFF7
S1130170FFFFFFFFFFFFFFFFFFFFF0F0F0C00000F5
S11301800000FFFFFFFFFFFFFFFFFFFFFFFFFFFF79
S1130190FFFFFFFFFF3F0F0F00000000C0F0FFFF55
S11301A0FFFFFFFFFFFFFFFF0F0F0F030000000023
S11301B0C0F0FCFFFFFFFFFFFFFFFFFFFFFFFFFF9C
S11301C0FFFFFFFFFFFCF0C0FFFFFF3F3FFFFFFF0C
S11301D0FFFFFFFFFFFFFFFFFFFFFF3F3FFFFFFFAB
S11301E00F0F0F0FC0FFFFFFFF3F0F0F0F0F3FFF5A
S11301F0FFFFFFC00F0F0F0FF0FCFFFFFFFFFFFF1C
S11302000000000000000000FFFFFFFFFFFFFCF004
S1130210000000000000000000065F5F0600000010
S11302200007070007070000147F7F147F7F140076
S1130230242E6B6B3A120000466630180C6662007E
S1130240307A4F5D377A480004070300000000004D
S1130250001C3E63410000000041633E1C0000009E
S1130260082A3E1C1C3E2A0808083E3E08080000D6
S113027000A0E0600000000008080808080800006A
S113028000006060000000006030180C06030100EC
S11302903E7F594D7F3E000042427F7F4040000038
S11302A0627359496F660000226349497F36000032
S11302B0181C16137F7F1000276745457D39000001
S11302C03C7E4B4979300000036371190F0700002D
S11302D0367F49497F360000064F49693F1E0000BA
S11302E000006C6C0000000000A0EC6C000000003A
S11302F0081C366341000000141414141414000084
S1130300004163361C080000020351590F06000027
S11303103E7F415D5D1F1E007C7E13137E7C0000CA
S1130320417F7F49497F36001C3E6341416322007F
S1130330417F7F41637F1C00417F7F495D416300B2
S1130340417F7F491D0103001C3E634151737200CC
S11303507F7F08087F7F000000417F7F410000000D
S1130360307040417F3F0100417F7F081C7763006C
S1130370417F7F41406070007F7F060C067F7F00D5
S11303807F7F060C187F7F001C3E6341633E1C0088
S1130390417F7F49090F06001E3F21717F5E0000E7
S11303A0417F7F19396F460026674D597B32000023
S11303B003417F7F410300007F7F40407F7F000037
S11303C01F3F60603F1F00007F7F3018307F7F0039
S11303D063771C081C776300074F78784F07000089
S11303E06773594D47637100007F7F4141000000EE
S11303F00103060C183060000041417F7F000000BB
S1130400080C0603060C08008080808080808080B1
S11304100000030704000000207454543C7840009A
S1130420413F7F44447C3800387C44446C280000BD
S1130430307848493F7F4000387C54545C180000B1
S1130440487E7F490302000098BCA4A4F87C040001
S1130450417F7F08047C780000447D7D40000000DB
S113046040C484FD7D000000417F7F10386C44004F
S113047000417F7F400000007C7C0C180C7C7800DD
S11304807C7C04047C780000387C44447C38000084
S113049084FCF8A4243C1800183C24A4F8FC840030
S11304A0447C78441C180000485C545474240000B4
S11304B000043E7F442400003C7C40403C7C4000DF
S11304C01C3C60603C1C00003C7C6030607C3C0058
S11304D0446C3810386C44009CBCA0A0FC7C000028
S11304E04C64745C4C64000008083E774141000091
S11304F000000077770000004141773E08080000C3
S1130500020301030203010011241FBECFEFD4E054
S1130510DEBFCDBF12E0A0E0B1E0E2EBFDE102C03E
S113052005900D92A038B107D9F722E0A0E8B2E017
S113053001C01D92A33BB207E1F70E94B6040C94DC
S1130540D70E0C94000085B7806885BF80B78062A1
S113055080BF309880E090E00895843040F4846057
S1130560809300142899FECF80910014089580E0B0
S113057008950E947F064FEF64E680E60E944706D6
S113058040E060EE8FE00E94470641E061E08BE2CC
S11305900E94470680E090E0089580E30E946D0683
S11305A084FD05C085FF06C02EEF3FEF05C02FEF89
S11305B03FEF02C020E030E0822F932F089580E3C4
S11305C00E946D0686958695869591E089278170AF
S11305D090E008951F93CF93DF93EC010E94DF0214
S11305E0892B99F1688179817595679575956795DA
S11305F07595679581E30E941F0668817981660F6E
S1130600771F62957295707F7627607F762782E3E5
S11306100E941F066A816F7085E30E941F068A810B
S1130620882369F010E0FE01E10FF11D6381812F41
S11306308A5C0E941F061F5F8A811817A0F381E05D
S11306400E94350620E030E00AC00E94CD02909559
S1130650292F221F2227221F30E021503109822F07
S1130660932FDF91CF911F91089540E061E08CE2D8
S11306700E94470681E08093800280E090E0089524
S11306809F92AF92BF92CF92DF92EF92FF920F931D
S11306901F93CF93DF93CDB7DEB72B970FB6F894A4
S11306A0DEBF0FBECDBF7C0190918002913099F5E1
S11306B081E60E946D06C82E82E60E946D06829530
S11306C086958770D12CCC0CDD1CCC0CDD1CCC0C9D
S11306D0DD1CC82A85E60E946D060F2EFFE09F2EC2
S11306E0F02D9822A9F08E010C5F1F4F0F2EF6E615
S11306F0AF2EF02DA90C0F2EF6E6BF2EF02D8B2D6C
S11307000E946D06F80181938F01B394BA10F7CF5C
S11307101092800203C0CC24CA94DC2CDA82C982F1
S11307209B828BE0FE013196D70101900D928A9550
S1130730E1F7C7012B960FB6F894DEBF0FBECDBF0D
S1130740DF91CF911F910F91FF90EF90DF90CF90A9
S1130750BF90AF909F9008951F920F920FB60F9283
S113076011242F933F934F935F936F937F938F93B2
S11307709F93AF93BF93EF93FF9380E090E3019730
S1130780F1F700C00E943503FF91EF91BF91AF9143
S11307909F918F917F916F915F914F913F912F9195
S11307A00F900FBE0F901F90189580E00E94AD022D
S11307B08093820281E00E94AD028093810280E0F6
S11307C090E008950E94A30287B3887F87BB88B313
S11307D0876088BB0E94D50380E090E00895813053
S11307E0910561F08230910579F0892B99F496B3E3
S11307F081E08927282F217030E00EC086B381FB69
S1130800222720F930E008C086B382FB222720F992
S113081030E002C020E030E0822F932F0895CF9380
S1130820DF9380E00E94AD02D82F81E00E94AD02E8
S1130830C82F209182022D17A0F430E06D2F70E0B4
S1130840621B730B84E6869FA001879F500D1124C1
S11308506FEF70E0621B730BCA010E94370AE62F28
S113086014C0D21788F4622F70E0ED2FF0E0E61B7D
S1130870F70B84E68E9F90018F9F300D1124C901E0
S11308800E94370AE62F01C0E0E0209181022C1774
S1130890A0F430E04C2F50E0421B530B64E6649FFD
S11308A0C001659F900D11244FEF50E0BA01621B07
S11308B0730B0E94370A762F13C0C21780F430E0FE
S11308C04C2F50E0421B530B64E6649FC001659FAC
S11308D0900D1124B9010E94370A762F01C070E0EF
S11308E06E2F80E090E0DF91CF9108950E940F0475
S11308F0462F572F282F392F66231CF0161624F065
S113090005C02AE031E002C02FE031E055231CF09D
S1130910151624F005C025E131E002C02AE131E0DA
S1130920411104C0511102C02DE131E0822F932FF7
S11309300895CF9382E00E94AD02C82F83E00E9405
S1130940AD02F82FE4E6EC9FC00111242FEF30E054
S1130950B9010E94370A462FEF9FC0011124B90143
S11309600E94370A962F842FCF910895CF93DF9357
S1130970CDB7DEB766970FB6F894DEBF0FBECDBF16
S11309808A988BB780648BBF85B7826085BF85B733
S11309908E7F85BF8FE190E00E940F0A85E291E08F
S11309A09F938F930E94B30A0E94E2030F900F90CB
S11309B0892B49F48CE391E09F938F930E94B30AAF
S11309C00F900F9008C087E591E09F938F930E944A
S11309D0B30A0F900F900E946B080E945B080E945C
S11309E03A0965E070E081E090E00E941D0882E72A
S11309F091E00E94290965E070E083E090E00E94A4
S1130A001D088CE791E00E94290965E070E084E00C
S1130A1090E00E941D0889E891E00E9429090E9443
S1130A20B902892B79F482E991E09F938F930E9414
S1130A30B30A81E090E09A83898383E08B830F90EB
S1130A400F9008C088EA91E09F938F930E94B30AA5
S1130A500F900F900E949F06789400E00F2EF7E00D
S1130A60EF2EF12CF02D6894AA24A1F8B12C11E0FA
S1130A70812C412C6894332431F8212C662463940E
S1130A806894CC24C1F8D12C01C0162D24E080E850
S1130A9091E0215080409040E1F700C000C080E028
S1130AA090E00E94EF03019711F5113091F012309C
S1130AB0C1F4411007C021E0821669F082E0881277
S1130AC010C00CC092E049120CC021E0821209C08F
S1130AD007C0132D06C013E0462C03C0432C01C0ED
S1130AE0422C80E090E00E94EF030197D1F3123092
S1130AF0C1F1133009F471C0113041F688E0A81631
S1130B00B1040CF0560192E0E916F1042CF40F2E16
S1130B10F7E0EF2EF12CF02D462D62E385E00E94E4
S1130B206B094A2D62E385E00E946B09462D66E459
S1130B3085E00E946B094E2D66E485E00E946B09F6
S1130B40462D6AE585E00E946B094A2D6AE585E039
S1130B500E946B092FEFA21AB20A81E0E81AF10889
S1130B6095CF0E945B080E947604782E892E6AE154
S1130B7071E00E945F0A282F392F232B79F4662D08
S1130B80842D0E94F806882E98E120E887E0915091
S1130B9020408040E1F700C0000078CF65E171E0BB
S1130BA0872D982D0E945F0A282F392F232B79F443
S1130BB0632D842D0E94F806882E98E120E887E0B2
S1130BC0915020408040E1F700C000005FCF622DCB
S1130BD0842D0E94F806882E59CF0E945B08CE010E
S1130BE00C960E9440038C859D85029769F40F85BD
S1130BF01F920F938EEB91E09F938F930E94B30A01
S1130C000F900F900F900F9087EC91E00E942909AC
S1130C10802F805D0E940C090E940F046C830E9447
S1130C2099049D8380E090E00E94EF038E83CE01BF
S1130C3001960E94EA02053009F028CF26CFCF930F
S1130C40DF93D82FC62F0E94010A82E00E94F40984
S1130C508D2F0E94F4098C2F0E94F4090E94030A2C
S1130C6080E090E0DF91CF910895CF93883018F41D
S1130C70C82FC06801C0C0E80E94010A8C2F0E94DE
S1130C80F4090E94030A80E090E0CF9108951F9335
S1130C90CF93DF93182FD62FC42F0E94010A85E02B
S1130CA00E94F409812F0E94F4098D2F0E94F409F7
S1130CB08C2F0E94F4090E94030A80E090E0DF91E7
S1130CC0CF911F9108950E94010A80EC0E94F409BB
S1130CD00E94030A80E090E00895CF93C82F0E94F9
S1130CE0010A83E00E94F4098C2F0E94F4090E94F7
S1130CF0FA09C82F0E94030A8C2FCF910895CF932D
S1130D00DF931F92CDB7DEB70E94EB090E94630602
S1130D108EE00E946D0689838981807E803839F057
S1130D208FEC91E00E94220A21E030E002C020E032
S1130D3030E0822F932F0F90DF91CF910895CF93BE
S1130D40DF9381E092E09093930280939202A9E969
S1130D50B2E0B0939502A0939402E0EAF2E0F0933B
S1130D609702E093960221E02093980286E092E0B5
S1130D7011969C938E9310929C0210929B02CBE846
S1130D80D2E0D0939E02C0939D0210929F028EE007
S1130D9092E099838883B0938E02A0938D0210927F
S1130DA0900210928F02109291028CE192E0918352
S1130DB080831092A3021092A202A4E8B2E0B0933E
S1130DC0A502A093A4021092A6028AE292E08D9357
S1130DD09C93F0938702E09386021092890210920A
S1130DE0880210928A0220938302DF91CF910895A2
S1130DF01F93CF93DF93162F813009F49EC020F008
S1130E00823009F0D7C0AEC00E94E0078CE392E0C4
S1130E100E94290981E090E00E940508C0E1D0E029
S1130E208AE192E00E9429092197D1F7C2E0D0E03B
S1130E3060E070E0CE010E941D088CE70E940C095E
S1130E402196C730D105A1F7C2E0D0E06FE070E091
S1130E50CE010E941D088CE70E940C092196C73020
S1130E60D105A1F763E070E082E090E00E941D08E4
S1130E70E0919402F0919502808191810E94290968
S1130E8063E070E083E090E00E941D08E091960228
S1130E90F0919702808191810E94290964E070E0B9
S1130EA084E090E00E941D088DE492E00E942909EC
S1130EB064E070E085E090E00E941D0887E592E020
S1130EC00E94290964E070E086E090E00E941D0819
S1130ED081E692E00E94290987E090E00E940508DB
S1130EE08BE20E940C09CEE0D0E08AE192E00E94FD
S1130EF029092197D1F78BE20E940C09113041F4A2
S1130F0080918302823069F481E08093830209C076
S1130F10123039F480918302813019F482E0809395
S1130F2083028091830290E061E070E001960E9468
S1130F301D0888E70E940C093DC00E94E0078091CB
S1130F408B0290918C020E94290981E08093830294
S1130F5060E070E081E090E00E941D0888E70E9454
S1130F600C0928C00E94E0078091840290918502B8
S1130F700E94290962E070E081E090E00E941D086F
S1130F808BE692E00E94290962E070E082E090E042
S1130F900E941D0888E792E00E94290981E080935D
S1130FA0830260E070E082E090E00E941D0888E720
S1130FB00E940C0980918302DF91CF911F910895C3
S1130FC0E0910801F091090181E28083E091080138
S1130FD0F09109011082E0910801F09109018FE775
S1130FE08083E0910801F091090182E28083E0911D
S1130FF00801F09109011082E0910801F0910901C2
S113100087E0808380E090E00895E0910801F0910A
S113101009011082E0910801F091090120E1208387
S1131020883091053CF4E0910801F0910901806B4E
S11310309F6F808380E090E008950F931F93CF9378
S1131040DF938C01EB010E94E007C8010E940508B0
S1131050C031D105CCF4E0910801F0910901CC0F25
S1131060DD1FCC0FDD1FCC0FDD1FD595C795D595A2
S1131070C795D595C795D595C795C083E0910801C7
S1131080F0910901C05FC08380E090E0DF91CF91CF
S11310901F910F9108950E94050880E890E0E09167
S11310A00601F091070110820197C9F70E94E00739
S11310B080E090E00895CF93DF93C0E0D0E0CE01CC
S11310C00E944B082196C830D105C9F780E090E012
S11310D0DF91CF91089585B7806885BF80B780621E
S11310E080BFE0910801F09109018EEA8083E091CC
S11310F00801F091090181EA8083E0910801F091EF
S113110009018AED8083E0910801F091090182E1EF
S11311108083E0910801F091090188EC8083E091DB
S11311200801F091090188EA8083E0910801F091B7
S113113009018FE38083E0910801F091090185EDB5
S11311408083E0910801F091090180E88083E091B7
S11311500801F091090181E88083E0910801F09190
S1131160090180E58083E0910801F091090189ED8E
S11311708083E0910801F091090181E28083E0918C
S11311800801F091090180E28083E0910801F09167
S1131190090182E08083E0910801F09109018BED5F
S11311A08083E0910801F091090180E38083E0915C
S11311B00801F09109018DEA8083E0910801F09122
S11311C009011082E0910801F091090184EA808309
S11311D0E0910801F091090186EA8083E091080119
S11311E0F09109018FEA8083E0910801F0910901EF
S11311F080EB8083E0910801F09109011082E09175
S11312000801F091090180E180830E945B080E943B
S1131210E00780E090E0089520E030E090E08097DF
S1131220880F991F880F991F880F991FA091060195
S1131230B0910701FC01E20FF31FE05FFD4FE49161
S1131240EC932F5F3F4F2830310581F780E090E029
S11312500895CF93DF93EC018881882331F02196A0
S11312600E940C0989918111FBCF80E090E0DF910D
S1131270CF910895CF93DF930E94E007C0E0D0E0C0
S113128060E070E0CE010E941D0820E030E0AE0175
S1131290440F551F4C0F5D1F440F551F440F551F1E
S11312A0440F551FA0910601B0910701FA01E20F06
S11312B0F31FE05BFE4FE491EC932F5F3F4F283127
S11312C0310581F72196C830D105D1F680E090E050
S11312D0DF91CF910895EF92FF920F931F93CF93D5
S11312E0DF93F62E483008F052C0C42FD0E0219787
S11312F0082F10E0C8010E940508EF2CFF200CF411
S11313004BC0E0910801F09109018F2D82958F70F7
S11313108083E0910801F0910901805F80833CC0E3
S1131320A0910601B0910701FC01E20FF31FE059FF
S1131330FF4FE491EC932F5F3F4F2031310581F74C
S1131340C80101960E940508EE2094F1E09108017D
S1131350F09109018F2D82958F708083E0910801AF
S1131360F0910901805F808323C0A0910601B091B0
S11313700701F901E80FF91FE059FF4FE491EC93DD
S113138001968032910589F720E030E002C02FEF0A
S11313903FEF822F932F18C020E030E0CE01880F5A
S11313A0991F82959295907F9827807F9827B8CF30
S11313B080E190E09E01220F331F22953295307F09
S11313C03227207F3227D1CFDF91CF911F910F9108
S11313D0FF90EF90089587B3806B87BBBE9881E53B
S11313E08DB980E090E008958FB9779BFECF80E0BF
S11313F090E0089580E00E94F409779BFECF8FB1BE
S11314000895C4980895C49A08955D9BFECF8CB93D
S113141080E090E008955F9BFECF8CB1089589B978
S113142090BD88E18AB98EE880BD6BE07AE085E002
S11314309AE00E94680A9093A8028093A70280E031
S113144090E00895CF93DF93EC018881882351F0D5
S113145021966091A7027091A8020E94050A8991C1
S11314608111F7CF80E090E0DF91CF91089597FB51
S1131470072E16F4009407D077FD09D00E944B0A7A
S113148007FC05D03EF4909581959F4F0895709583
S113149061957F4F0895AA1BBB1B51E107C0AA1F8A
S11314A0BB1FA617B70710F0A61BB70B881F991F01
S11314B05A95A9F780959095BC01CD010895FB013B
S11314C0DC018D91019080190110D9F3990B0895D5
S11314D00F931F93CF93DF93EC018B01009731F4AB
S11314E06115710519F4E0E0F0E037C06EE070E0DA
S11314F081E090E00E94A30CFC010097A1F380E836
S113150083830115110571F01387028781E88383B2
S11315108091A9029091AA02892B21F4F093AA0246
S1131520E093A9022097C9F0D187C08783818260A4
S113153083838091AB029091AC02892B71F4F09378
S1131540AC02E093AB028091AD029091AE02892B84
S113155021F4F093AE02E093AD02CF01DF91CF917D
S11315601F910F910895A0E0B0E0E9EBFAE00C942C
S1131570B00EFE01359661917191AF018091AB027D
S11315809091AC020E94C70AE2E00C94CC0EACE04D
S1131590B0E0EDECFAE00C94A00E7C016B018A0142
S11315A0FC0117821682838181FFC6C1882483943B
S11315B0912C8C0E9D1EF7019381F60193FD85916C
S11315C093FF81916F01882309F4B2C1853239F404
S11315D093FD859193FF81916F01853229F4B701C1
S11315E090E00E94160EE7CF512C312C20E02032DF
S11315F0A8F48B3261F028F4803251F0833271F414
S11316000BC08D3239F0803349F4216028C0226048
S1131610246025C0286023C0206121C027FD27C085
S1131620382F30533A3078F426FF06C0FAE05F9E34
S1131630300D1124532E13C08AE0389E300D11242E
S1131640332E20620CC08E3221F426FD71C1206439
S113165006C08C3611F4206802C0883641F4F601C5
S113166093FD859193FF81916F018111C0CF982FD4
S11316709554933018F09052933028F40C5F1F4F18
S1131680FFE3F9830DC0833631F0833771F083357E
S113169009F05EC023C0F801808189830E5F1F4F6B
S11316A044244394512C540115C03801F2E06F0EC8
S11316B0711CF801A080B18026FF03C0652D70E085
S11316C002C06FEF7FEFC5012C870E940B0E2C0127
S11316D083012C856FE7262E222218C03801F2E000
S11316E06F0E711CF801A080B18026FF03C0652D28
S11316F070E002C06FEF7FEFC5012C870E94F90DE7
S11317002C012C8550E8252E222A830123FC1CC0A1
S113171006C0B70180E290E00E94160E3A94832D31
S113172090E048165906A8F30FC0F50127FC8591EF
S113173027FE81915F01B70190E00E94160E3110DF
S11317403A94F1E04F1A51084114510471F7EDC075
S1131750843611F0893641F5F80127FF07C060810E
S11317607181828193810C5F1F4F08C060817181F8
S1131770882777FD8095982F0E5F1F4F4FE6B42E74
S1131780B22297FF09C090958095709561957F4F1F
S11317908F4F9F4FF0E8BF2A2AE030E0A4010E9457
S11317A0420EA82EA81843C0853731F43FEEB32E5D
S11317B0B2222AE030E024C099EFB92EB2228F364B
S11317C0B9F020F4883509F0B3C00DC0803721F09A
S11317D0883709F0ADC002C020E1B22AB4FE0BC0C4
S11317E084E0B82A08C024FF09C0E6E0BE2A06C087
S11317F028E030E005C020E130E002C020E132E022
S1131800F801B7FE07C060817181828193810C5F0A
S11318101F4F06C06081718180E090E00E5F1F4F12
S1131820A4010E94420EA82EA818FFE7BF22B6FE0C
S11318300BC02B2D2E7FA51450F4B4FE0AC0B2FCAD
S113184008C02B2D2E7E05C07A2C2B2D03C07A2C9C
S113185001C0752C24FF0DC0FE01EA0DF11D80812D
S1131860803311F4297E09C022FF06C07394739457
S113187004C0822F867809F0739423FD14C020FFDE
S11318800FC05A2C731460F4530C5718732C08C0EF
S1131890B70180E290E02C870E94160E73942C8589
S11318A07314B0F304C0731410F4371801C0312C4E
S11318B024FF12C0B70180E390E02C870E94160E2B
S11318C02C8522FF1EC021FF03C088E590E002C0E2
S11318D088E790E0B7010CC0822F867891F021FD53
S11318E002C080E201C08BE227FD8DE2B70190E0E7
S11318F00E94160E06C0B70180E390E00E94160E07
S11319005A94A514C0F3AA94F401EA0DF11DB70189
S1131910808190E00E94160EA110F5CF06C0B70199
S113192080E290E00E94160E3A943110F8CF43CE34
S1131930F7012681378102C02FEF3FEFC9012C96B2
S1131940E2E10C94BC0E0F931F93CF93DF93689F37
S11319508001699F100D789F100D1124C8010E9409
S1131960C10CC82FD92F209731F0A80160E070E096
S11319708C2F0E94040ECE01DF91CF911F910F9105
S113198008950F931F93CF93DF938230910510F442
S113199082E090E0E091B102F091B20220E030E008
S11319A0C0E0D0E023C04081518148175907A8F016
S11319B04817590761F482819381209719F09B831A
S11319C08A832EC09093B2028093B10229C021155C
S11319D0310529F04217530710F0A90102C0BE01D6
S11319E0DF0102811381EF019A01F8013097D9F6E2
S11319F02115310509F1281B390B2430310590F4E8
S1131A0012968D919C9113976115710521F0FB013C
S1131A109383828304C09093B2028093B102FD0148
S1131A20329644C0FD01E20FF31F8193919322503B
S1131A3031092D933C933AC02091AF023091B0020A
S1131A40232B41F420910201309103013093B00221
S1131A502093AF022091000130910101211531053D
S1131A6041F42DB73EB74091040150910501241B68
S1131A70350BE091AF02F091B002E217F307A0F446
S1131A802E1B3F0B2817390778F0AC014E5F5F4FD0
S1131A902417350748F04E0F5F1F5093B002409350
S1131AA0AF028193919302C0E0E0F0E0CF01DF91B7
S1131AB0CF911F910F910895EF92FF920F931F936F
S1131AC0CF93DF93009709F48FC0DC01129713962C
S1131AD01C921E921297E090B102F090B202E114AF
S1131AE0F10489F42D913C911197280F391F8091AD
S1131AF0AF029091B0028217930789F5B093B002B8
S1131B00A093AF0271C0E70120E030E001C0EA0118
S1131B10CA17DB0738F44A815B819E0141155105E0
S1131B20B1F722C0BC0162507109FB01D383C283A7
S1131B3000811181AC01400F511F4C175D0761F406
S1131B4048815981400F511F4E5F5F4F518340833D
S1131B504A815B81538342832115310529F4B09373
S1131B60B202A093B10240C0F901B383A283E90198
S1131B7069917991C60FD71FAC17BD0779F4DC01C1
S1131B805E914E91460F571F4E5F5F4F51834083C6
S1131B9012968D919C91139793838283A0E0B0E079
S1131BA002C0D7017C01F701828193810097C9F7B4
S1131BB0C701029620813181820F931F2091AF02C9
S1131BC03091B0022817390779F4109729F410924C
S1131BD0B2021092B10204C013961C921E92129784
S1131BE0F092B002E092AF02CDB7DEB7E6E00C941B
S1131BF0C80EFC010590615070400110D8F7809523
S1131C0090958E0F9F1F0895DC0101C06D93415084
S1131C105040E0F70895FC016150704001900110BC
S1131C20D8F7809590958E0F9F1F08950F931F935B
S1131C30CF93DF938C01EB018B8181FD03C00FEF08
S1131C401FEF1AC082FF0DC02E813F818C819D81C0
S1131C502817390764F4E881F9810193F983E8834B
S1131C6006C0E885F985802F0995892B41F78E8177
S1131C709F8101969F838E83C801DF91CF911F912D
S1131C800F910895FA01AA27283051F1203181F1EA
S1131C90E8946F936E7F6E5F7F4F8F4F9F4FAF4F70
S1131CA0B1E03ED0B4E03CD0670F781F891F9A1F83
S1131CB0A11D680F791F8A1F911DA11D6A0F711D37
S1131CC0811D911DA11D20D009F468943F912AE043
S1131CD0269F11243019305D3193DEF6CF0108952B
S1131CE0462F4770405D4193B3E00FD0C9F7F6CF5C
S1131CF0462F4F70405D4A3318F0495D31FD405224
S1131D00419302D0A9F7EACFB4E0A69597958795B9
S1131D1077956795BA95C9F7009761057105089598
S1131D209B01AC010A2E0694579547953795279544
S1131D30BA95C9F7620F731F841F951FA01D0895DC
S1131D402F923F924F925F926F927F928F929F92C7
S1131D50AF92BF92CF92DF92EF92FF920F931F93B5
S1131D60CF93DF93CDB7DEB7CA1BDB0B0FB6F89466
S1131D70DEBF0FBECDBF09942A88398848885F84A6
S1131D806E847D848C849B84AA84B984C884DF8017
S1131D90EE80FD800C811B81AA81B981CE0FD11DFB
S1131DA00FB6F894DEBF0FBECDBFED010895F894D1
S1051DB0FFCF5F
S1131DB20000B3022000001200104C4546540052A9
S1131DC24947485400444F574E005550004E45551C
S1131DD25452414C002D2D2D2D5541525420776FD4
S1131DE2726B696E672D2D2D2D0A0D002D2D2D2D53
S1131DF24A6F79737469636B20776F726B696E676C
S1131E022D2D2D2D0A0D002D2D2D2D4A6F79737434
S1131E1269636B206572726F7221212D2D2D2D0A3B
S1131E220D0050696E6720506F6E670050726573C3
S1131E327320427574746F6E00746F2073746172D0
S1131E4274002D2D2D2D43414E20776F726B696ED8
S1131E52672D2D2D2D0A0D002D2D2D2D43414E20A4
S1131E626572726F7221212D2D2D2D0A0D0053637F
S1131E726F72652025690053636F72653A20004DC5
S1131E82435032353135206973204E4F5420696EE8
S1131E9220636F6E66696775726174696F6E206D17
S1131EA26F6465206166746572207265736574215E
S1131EB2004D656E7500312E5374617274002D2DC0
S1131EC22D47616D65206F6E2D2D2D00322E4869D0
S1131ED267682053636F726573002D2D2D486967FF
S1131EE2682053636F7265732D2D2D003D3D3D3D7A
S1131EF23D3D4D656E753D3D3D3D3D3D00204F7080
S1131F0274696F6E203300204F7074696F6E2034D1
S1131F1200204F7074696F6E2035003130303020EC
S1131F222D20457269636B0052455455524E000090
S903029961
