S01400004279676765726E4E6F6465312E737265638B
S11300000C9438000C9455000C9455000C94550035
S11300100C9455000C9455000C9455000C94550008
S11300200C9455000C9455000C9455000C945500F8
S11300300C9455000C9455000C9455000C945500E8
S11300400C9455000C9455000C9455000C945500D8
S11300500C9455000C9455000C9455000C945500C8
S11300600C9455000C9455000C9455000C945500B8
S113007011241FBECFEFD4E0DEBFCDBF11E0A0E05E
S1130080B1E0EAE4FDE002C005900D92A23AB107A6
S1130090D9F721E0A2EAB1E001C01D92AE3AB2075D
S11300A0E1F70E94E5000C94A3060C9400000E9462
S11300B0C80140E460EE8FE00E94900141E062E0FC
S11300C08BE20E94900141E060E08BE20E9490018B
S11300D080E090E0089581E090E008951F93CF932D
S11300E0DF93EC010E946B00892B81F140E063E017
S11300F080E30E9490016881798176956795769571
S113010067957695679581E30E9468016881629599
S1130110660F607E82E30E9468016A816295607F57
S113012085E30E9468018A81882369F010E0FE015A
S1130130E10FF11D6381812F8A5C0E9468011F5FBA
S11301408A811817A0F381E00E947E0180E090E08C
S1130150DF91CF911F9108951F93CF93DF938BE08D
S113016090E00E943402C82FD92F81E60E94B60184
S1130170882369F082E60E94B601282F22952695ED
S1130180277081E090E029F480E090E002C080E0F4
S113019090E09983888385E60E94B6018F708A83F4
S11301A0882369F010E0812F8A590E94B601FE016C
S11301B0E10FF11D83831F5F8A811817A0F38C2F31
S11301C09D2FDF91CF911F910895CF93DF9300D09E
S11301D0CDB7DEB78FE190E00E940C0286E091E09B
S11301E09F938F930E94B7030E94570087E191E089
S11301F09F938F930E94B703E981FA8183E090E093
S113020091838083E981FA8181E0828385E5838318
S1130210CE0101960E946E0087E291E09F938F9336
S11302200E94B70324E030E881E021503040804050
S1130230E1F700C000C00E94AC008C01FC01818188
S11302408F9380818F9386E391E09F938F930E9495
S1130250B703F80182811F928F9387E491E09F9303
S11302608F930E94B703F80182810FB6F894DEBF22
S11302700FBECDBF882311F1680133E0C30ED11C3A
S1130280E12CF12C0F2EFCE5AF2EF1E0BF2EF02D6A
S1130290F60181916F011F928F93BF92AF920E94DA
S11302A0B703FFEFEF1AFF0AF801828190E00F9085
S11302B00F900F900F90E816F90654F3F4E020E83D
S11302C031E0F15020403040E1F700C000C0F6CFEB
S11302D0CF93DF93D82FC62F0E94FE0182E00E94A5
S11302E0F1018D2F0E94F1018C2F0E94F1010E94D7
S11302F0000280E090E0DF91CF910895CF938830A1
S113030018F4C82FC06801C0C0E80E94FE018C2FF9
S11303100E94F1010E94000280E090E0CF910895D4
S11303201F93CF93DF93182FD62FC42F0E94FE0163
S113033085E00E94F101812F0E94F1018D2F0E941E
S1130340F1018C2F0E94F1010E94000280E090E0F4
S1130350DF91CF911F9108950E94FE0180EC0E94CD
S1130360F1010E94000280E090E00895CF93C82F2D
S11303700E94FE0183E00E94F1018C2F0E94F10192
S11303800E94F701C82F0E9400028C2FCF9108957C
S1130390CF93DF931F92CDB7DEB70E94E8010E948E
S11303A0AC018EE00E94B60189838981807E803809
S11303B039F08FE691E00E941F0221E030E002C094
S11303C020E030E0822F932F0F90DF91CF9108959A
S11303D087B3806B87BBBE9881E58DB980E090E0E0
S11303E008958FB9779BFECF80E090E0089580E078
S11303F00E94F101779BFECF8FB10895C4980895B0
S1130400C49A08955D9BFECF8CB980E090E0089576
S11304105F9BFECF8CB1089589B990BD88E18AB9FC
S11304208EE880BD68E072E082E092E00E946C0396
S11304309093A3018093A20180E090E00895CF936C
S1130440DF93EC018881882351F021966091A20109
S11304507091A3010E94020289918111F7CF80E07B
S113046090E0DF91CF9108950F931F93CF93DF9383
S11304708230910510F482E090E0E091A601F091C1
S1130480A70120E030E0C0E0D0E023C040815181EA
S113049048175907A8F04817590761F482819381D6
S11304A0209719F09B838A832EC09093A701809391
S11304B0A60129C02115310529F04217530710F070
S11304C0A90102C0BE01DF0102811381EF019A017B
S11304D0F8013097D9F62115310509F1281B390B9C
S11304E02430310590F412968D919C9113976115E7
S11304F0710521F0FB019383828304C09093A701CB
S11305008093A601FD01329644C0FD01E20FF31F62
S113051081939193225031092D933C933AC02091B9
S1130520A4013091A501232B41F4209102013091C3
S113053003013093A5012093A4012091000130917F
S113054001012115310541F42DB73EB74091040155
S113055050910501241B350BE091A401F091A501F4
S1130560E217F307A0F42E1B3F0B2817390778F086
S1130570AC014E5F5F4F2417350748F04E0F5F1FE5
S11305805093A5014093A4018193919302C0E0E0AC
S1130590F0E0CF01DF91CF911F910F910895EF9279
S11305A0FF920F931F93CF93DF93009709F48FC0AB
S11305B0DC01129713961C921E921297E090A601EA
S11305C0F090A701E114F10489F42D913C91119765
S11305D0280F391F8091A4019091A50182179307D8
S11305E089F5B093A501A093A40171C0E70120E0AF
S11305F030E001C0EA01CA17DB0738F44A815B81A5
S11306009E0141155105B1F722C0BC016250710928
S1130610FB01D383C28300811181AC01400F511FC0
S11306204C175D0761F448815981400F511F4E5F9B
S11306305F4F518340834A815B81538342832115F9
S1130640310529F4B093A701A093A60140C0F90194
S1130650B383A283E90169917991C60FD71FAC17BF
S1130660BD0779F4DC015E914E91460F571F4E5F32
S11306705F4F5183408312968D919C91139793837E
S11306808283A0E0B0E002C0D7017C01F70182813F
S113069093810097C9F7C701029620813181820FA7
S11306A0931F2091A4013091A5012817390779F4EB
S11306B0109729F41092A7011092A60104C0139672
S11306C01C921E921297F092A501E092A401CDB75C
S11306D0DEB7E6E00C9494060F931F93CF93DF9359
S11306E0EC018B01009731F46115710519F4E0E018
S11306F0F0E037C06EE070E081E090E00E94A70572
S1130700FC010097A1F380E883830115110571F0C2
S11307101387028781E883838091A8019091A901BE
S1130720892B21F4F093A901E093A8012097C9F043
S1130730D187C0878381826083838091AA0190914D
S1130740AB01892B71F4F093AB01E093AA01809182
S1130750AC019091AD01892B21F4F093AD01E093AC
S1130760AC01CF01DF91CF911F910F910895A0E0CB
S1130770B0E0EDEBF3E00C947C06FE01359661915C
S11307807191AF018091AA019091AB010E94CB03BA
S1130790E2E00C949806ACE0B0E0E1EDF3E00C94F8
S11307A06C067C016B018A01FC011782168283812D
S11307B081FFC6C188248394912C8C0E9D1EF70161
S11307C09381F60193FD859193FF81916F018823B5
S11307D009F4B2C1853239F493FD859193FF819177
S11307E06F01853229F4B70190E00E94E205E7CF5A
S11307F0512C312C20E02032A8F48B3261F028F403
S1130800803251F0833271F40BC08D3239F0803371
S113081049F4216028C02260246025C0286023C0D8
S1130820206121C027FD27C0382F30533A3078F497
S113083026FF06C0FAE05F9E300D1124532E13C02C
S11308408AE0389E300D1124332E20620CC08E3283
S113085021F426FD71C1206406C08C3611F4206891
S113086002C0883641F4F60193FD859193FF81918E
S11308706F018111C0CF982F9554933018F0905286
S1130880933028F40C5F1F4FFFE3F9830DC08336C8
S113089031F0833771F0833509F05EC023C0F8016D
S11308A0808189830E5F1F4F44244394512C54014B
S11308B015C03801F2E06F0E711CF801A080B18000
S11308C026FF03C0652D70E002C06FEF7FEFC50106
S11308D02C870E94D7052C0183012C856FE7262ED7
S11308E0222218C03801F2E06F0E711CF801A080BA
S11308F0B18026FF03C0652D70E002C06FEF7FEF6B
S1130900C5012C870E94C5052C012C8550E8252E95
S1130910222A830123FC1CC006C0B70180E290E0B8
S11309200E94E2053A94832D90E048165906A8F3F4
S11309300FC0F50127FC859127FE81915F01B70166
S113094090E00E94E20531103A94F1E04F1A510808
S11309504114510471F7EDC0843611F0893641F524
S1130960F80127FF07C060817181828193810C5F48
S11309701F4F08C060817181882777FD8095982F6B
S11309800E5F1F4F4FE6B42EB22297FF09C0909519
S11309908095709561957F4F8F4F9F4FF0E8BF2AE8
S11309A02AE030E0A4010E940E06A82EA81843C035
S11309B0853731F43FEEB32EB2222AE030E024C072
S11309C099EFB92EB2228F36B9F020F4883509F0A8
S11309D0B3C00DC0803721F0883709F0ADC002C024
S11309E020E1B22AB4FE0BC084E0B82A08C024FF78
S11309F009C0E6E0BE2A06C028E030E005C020E1D8
S1130A0030E002C020E132E0F801B7FE07C06081A7
S1130A107181828193810C5F1F4F06C06081718157
S1130A2080E090E00E5F1F4FA4010E940E06A82EE6
S1130A30A818FFE7BF22B6FE0BC02B2D2E7FA514EE
S1130A4050F4B4FE0AC0B2FC08C02B2D2E7E05C0A3
S1130A507A2C2B2D03C07A2C01C0752C24FF0DC0D9
S1130A60FE01EA0DF11D8081803311F4297E09C055
S1130A7022FF06C07394739404C0822F867809F011
S1130A80739423FD14C020FF0FC05A2C731460F418
S1130A90530C5718732C08C0B70180E290E02C87E0
S1130AA00E94E20573942C857314B0F304C073148C
S1130AB010F4371801C0312C24FF12C0B70180E3B1
S1130AC090E02C870E94E2052C8522FF1EC021FFA6
S1130AD003C088E590E002C088E790E0B7010CC04D
S1130AE0822F867891F021FD02C080E201C08BE262
S1130AF027FD8DE2B70190E00E94E20506C0B70130
S1130B0080E390E00E94E2055A94A514C0F3AA94ED
S1130B10F401EA0DF11DB701808190E00E94E20525
S1130B20A110F5CF06C0B70180E290E00E94E20573
S1130B303A943110F8CF43CEF7012681378102C0B1
S1130B402FEF3FEFC9012C96E2E10C9488060F9336
S1130B501F93CF93DF93689F8001699F100D789F47
S1130B60100D1124C8010E943402C82FD92F2097D8
S1130B7031F0A80160E070E08C2F0E94D005CE0116
S1130B80DF91CF911F910F910895FC010590615061
S1130B9070400110D8F7809590958E0F9F1F08958F
S1130BA0DC0101C06D9341505040E0F70895FC0111
S1130BB06150704001900110D8F7809590958E0F88
S1130BC09F1F08950F931F93CF93DF938C01EB0125
S1130BD08B8181FD03C00FEF1FEF1AC082FF0DC090
S1130BE02E813F818C819D812817390764F4E88127
S1130BF0F9810193F983E88306C0E885F985802F9C
S1130C000995892B41F78E819F8101969F838E835D
S1130C10C801DF91CF911F910F910895FA01AA277E
S1130C20283051F1203181F1E8946F936E7F6E5F2B
S1130C307F4F8F4F9F4FAF4FB1E03ED0B4E03CD0D9
S1130C40670F781F891F9A1FA11D680F791F8A1FBC
S1130C50911DA11D6A0F711D811D911DA11D20D023
S1130C6009F468943F912AE0269F11243019305DDD
S1130C703193DEF6CF010895462F4770405D4193CE
S1130C80B3E00FD0C9F7F6CF462F4F70405D4A331B
S1130C9018F0495D31FD4052419302D0A9F7EACFE3
S1130CA0B4E0A6959795879577956795BA95C9F712
S1130CB000976105710508959B01AC010A2E069405
S1130CC05795479537952795BA95C9F7620F731FBE
S1130CD0841F951FA01D08952F923F924F925F92FB
S1130CE06F927F928F929F92AF92BF92CF92DF9238
S1130CF0EF92FF920F931F93CF93DF93CDB7DEB79D
S1130D00CA1BDB0B0FB6F894DEBF0FBECDBF099430
S1130D102A88398848885F846E847D848C849B8487
S1130D20AA84B984C884DF80EE80FD800C811B8195
S1130D30AA81B981CE0FD11D0FB6F894DEBF0FBEC4
S10D0D40CDBFED010895F894FFCF34
S1130D4A0000AE0120005561727420696E697469ED
S1130D5A617465640A0D0043414E20696E697469C1
S1130D6A617465640A0D004D657373616765207368
S1130D7A656E740A0D004D65737361676520696455
S1130D8A3A2025690A0D004D657373616765206C05
S1130D9A656E6774683A2025690A0D004D65737398
S1130DAA61676520646174613A2025690A0D004D02
S1130DBA435032353135206973204E4F5420696EC1
S1130DCA20636F6E66696775726174696F6E206DF0
S1130DDA6F64652061667465722072657365742137
S1050DEA000003
S9030000FC
