:100000000C94B4010C94D1010C94D1010C94D10145
:100010000C94D1010C94D1010C94D1010C94D10118
:100020000C94D1010C94D1010C94D1010C94D10108
:100030000C94D1010C94D1010C94D1010C94D101F8
:100040000C94D1010C94D1010C94D1010C94D101E8
:100050000C94D1010C94D1010C94D1010C94D101D8
:100060000C94D1010C94D1010C94D1010C94D101C8
:10007000000000000000000000065F5F06000000B6
:100080000007070007070000147F7F147F7F14001C
:10009000242E6B6B3A120000466630180C66620024
:1000A000307A4F5D377A48000407030000000000F3
:1000B000001C3E63410000000041633E1C00000044
:1000C000082A3E1C1C3E2A0808083E3E080800007C
:1000D00000A0E06000000000080808080808000010
:1000E00000006060000000006030180C0603010092
:1000F0003E7F594D7F3E000042427F7F40400000DE
:10010000627359496F660000226349497F360000D7
:10011000181C16137F7F1000276745457D390000A6
:100120003C7E4B4979300000036371190F070000D2
:10013000367F49497F360000064F49693F1E00005F
:1001400000006C6C0000000000A0EC6C00000000DF
:10015000081C366341000000141414141414000029
:10016000004163361C080000020351590F060000CD
:100170003E7F415D5D1F1E007C7E13137E7C000070
:10018000417F7F49497F36001C3E63414163220025
:10019000417F7F41637F1C00417F7F495D41630058
:1001A000417F7F491D0103001C3E63415173720072
:1001B0007F7F08087F7F000000417F7F41000000B3
:1001C000307040417F3F0100417F7F081C77630012
:1001D000417F7F41406070007F7F060C067F7F007B
:1001E0007F7F060C187F7F001C3E6341633E1C002E
:1001F000417F7F49090F06001E3F21717F5E00008D
:10020000417F7F19396F460026674D597B320000C8
:1002100003417F7F410300007F7F40407F7F0000DC
:100220001F3F60603F1F00007F7F3018307F7F00DE
:1002300063771C081C776300074F78784F0700002E
:100240006773594D47637100007F7F414100000093
:100250000103060C183060000041417F7F00000060
:10026000080C0603060C0800808080808080808057
:100270000000030704000000207454543C78400040
:10028000413F7F44447C3800387C44446C28000063
:10029000307848493F7F4000387C54545C18000057
:1002A000487E7F490302000098BCA4A4F87C0400A7
:1002B000417F7F08047C780000447D7D4000000081
:1002C00040C484FD7D000000417F7F10386C4400F5
:1002D00000417F7F400000007C7C0C180C7C780083
:1002E0007C7C04047C780000387C44447C3800002A
:1002F00084FCF8A4243C1800183C24A4F8FC8400D6
:10030000447C78441C180000485C54547424000059
:1003100000043E7F442400003C7C40403C7C400084
:100320001C3C60603C1C00003C7C6030607C3C00FD
:10033000446C3810386C44009CBCA0A0FC7C0000CD
:100340004C64745C4C64000008083E774141000036
:1003500000000077770000004141773E0808000068
:10036000020301030203010011241FBECFEFD4E0FA
:10037000DEBFCDBF11E0A0E0B1E0E8E1F6E002C0F1
:1003800005900D92A031B107D9F721E0A0E1B1E0CD
:1003900001C01D92A031B207E1F70E94D3010C9475
:1003A0000A030C9400000E942E0281E090E00E945B
:1003B000EF018AE091E00E94F50282E090E00E9465
:1003C000EF018AE091E00E94F50221E380E09FE0E6
:1003D000215080409040E1F700C00000F6CFE0914E
:1003E0000801F09109011082E0910801F0910901E2
:1003F00020E12083883091054CF4E0910801F091D0
:1004000009018055808320E030E002C021E030E027
:10041000822F932F08950E94EF01892BA1F021E0F4
:1004200030E019C0A0910601B0910701FC01E0592C
:10043000FF4FE491EC9301968830910599F7215094
:10044000310929F406C020E130E040E050E0CA0163
:10045000E9CF20E030E0822F932F0895CF93DF93F0
:1004600085B7806885BF80B7806280BFE091080152
:10047000F09109018EEA8083E0910801F091090171
:1004800081EA8083E0910801F09109018AED80837F
:10049000E0910801F091090182E18083E091080177
:1004A000F091090188EC8083E0910801F091090145
:1004B00088EA8083E0910801F09109018FE380834D
:1004C000E0910801F091090185ED8083E091080138
:1004D000F091090180E88083E0910801F091090121
:1004E00081E88083E0910801F091090180E5808333
:1004F000E0910801F091090189ED8083E091080104
:10050000F091090181E28083E0910801F0910901F5
:1005100080E28083E0910801F091090182E080830C
:10052000E0910801F09109018BED8083E0910801D1
:10053000F091090180E38083E0910801F0910901C5
:100540008DEA8083E0910801F09109011082E09129
:100550000801F091090184EA8083E0910801F0919B
:10056000090186EA8083E0910801F09109018FEA90
:100570008083C0E0D0E0CE010E940B022196C830FB
:10058000D105C9F7E0910801F09109011082E091CD
:100590000801F091090180E18083E0910801F09168
:1005A000090180EB808380E090E0DF91CF91089596
:1005B000805220E030E090E0880F991F880F991F4B
:1005C000880F991FA0910601B0910701FC01E20F6D
:1005D000F31FE059FF4FE491EC932F5F3F4F28301A
:1005E000310581F780E090E00895CF93DF93EC012F
:1005F0008881982F90529F3540F421960E94D8020E
:100600008991982F90529F35C8F380E090E0DF9158
:08061000CF910895F894FFCF8B
:1006180000001001200000120010686F6C610000DB
:00000001FF
