:100000000C94B4010C94D1010C94D1010C94D10145
:100010000C94D1010C94D1010C94D1010C94D10118
:100020000C94D1010C94D1010C94D1010C94D10108
:100030000C94D1010C94D1010C94D1010C94D101F8
:100040000C94D1010C94D1010C94D1010C94D101E8
:100050000C94D1010C94D1010C94D1010C94D101D8
:100060000C94D1010C94D1010C94D1010C94D101C8
:10007000000000000000000000065F5F06000000B6
:100080000007070007070000147F7F147F7F14001C
:10009000242E6B6B3A120000466630180C66620024
:1000A000307A4F5D377A48000407030000000000F3
:1000B000001C3E63410000000041633E1C00000044
:1000C000082A3E1C1C3E2A0808083E3E080800007C
:1000D00000A0E06000000000080808080808000010
:1000E00000006060000000006030180C0603010092
:1000F0003E7F594D7F3E000042427F7F40400000DE
:10010000627359496F660000226349497F360000D7
:10011000181C16137F7F1000276745457D390000A6
:100120003C7E4B4979300000036371190F070000D2
:10013000367F49497F360000064F49693F1E00005F
:1001400000006C6C0000000000A0EC6C00000000DF
:10015000081C366341000000141414141414000029
:10016000004163361C080000020351590F060000CD
:100170003E7F415D5D1F1E007C7E13137E7C000070
:10018000417F7F49497F36001C3E63414163220025
:10019000417F7F41637F1C00417F7F495D41630058
:1001A000417F7F491D0103001C3E63415173720072
:1001B0007F7F08087F7F000000417F7F41000000B3
:1001C000307040417F3F0100417F7F081C77630012
:1001D000417F7F41406070007F7F060C067F7F007B
:1001E0007F7F060C187F7F001C3E6341633E1C002E
:1001F000417F7F49090F06001E3F21717F5E00008D
:10020000417F7F19396F460026674D597B320000C8
:1002100003417F7F410300007F7F40407F7F0000DC
:100220001F3F60603F1F00007F7F3018307F7F00DE
:1002300063771C081C776300074F78784F0700002E
:100240006773594D47637100007F7F414100000093
:100250000103060C183060000041417F7F00000060
:10026000080C0603060C0800808080808080808057
:100270000000030704000000207454543C78400040
:10028000413F7F44447C3800387C44446C28000063
:10029000307848493F7F4000387C54545C18000057
:1002A000487E7F490302000098BCA4A4F87C0400A7
:1002B000417F7F08047C780000447D7D4000000081
:1002C00040C484FD7D000000417F7F10386C4400F5
:1002D00000417F7F400000007C7C0C180C7C780083
:1002E0007C7C04047C780000387C44447C3800002A
:1002F00084FCF8A4243C1800183C24A4F8FC8400D6
:10030000447C78441C180000485C54547424000059
:1003100000043E7F442400003C7C40403C7C400084
:100320001C3C60603C1C00003C7C6030607C3C00FD
:10033000446C3810386C44009CBCA0A0FC7C0000CD
:100340004C64745C4C64000008083E774141000036
:1003500000000077770000004141773E0808000068
:10036000020301030203010011241FBECFEFD4E0FA
:10037000DEBFCDBF12E0A0E0B1E0E0E1F8E102C0F5
:1003800005900D92A039B107D9F712E0A0E9B2E0CB
:1003900001C01D92AE39B107E1F70E941D030C9414
:1003A000060C0C94000085B7806885BF80B780621A
:1003B00080BF309880E090E00895843040F48460FD
:1003C000809300142899FECF80910014089580E056
:1003D000089580E00E94DD018093910281E00E94F7
:1003E000DD018093900280E090E008950E94D301A7
:1003F00087B3887F87BB81E088BB0E94E90180E0EA
:1004000090E008958130910561F08230910581F08E
:100410000097A9F481E090E0B09B13C080E090E0E9
:10042000089581E090E0B1990CC080E090E00895DB
:1004300081E090E0B29905C080E090E0089580E00E
:1004400090E008951F93CF93DF9300D000D00F92D8
:10045000CDB7DEB780E00E94DD01182F81E00E9459
:10046000DD01E82FA0919102A117B8F4B0E0212F8F
:1004700030E02A1B3B0B84E690E0289FA001299FD7
:10048000500D389F500D11246FEF70E06A1B7B0BED
:10049000CA010E944907162F16C01A1798F46A2F2E
:1004A00070E0212F30E0261B370B44E650E0249FFC
:1004B000C001259F900D349F900D11240E94490783
:1004C000162F01C010E0409190024E17B0F450E09A
:1004D000F0E0E41BF50B84E690E0E89F9001E99FD3
:1004E000300DF89F300D11246FEF70E0641B750B19
:1004F000C9010E944907362F16C0E41798F4642FEB
:1005000070E02E2F30E0261B370B44E650E0249F8E
:10051000C001259F900D349F900D11240E94490722
:10052000362F01C030E04B815C816D81212F70E05E
:1005300080E090E00F900F900F900F900F90DF9160
:10054000CF911F910895CF93DF93CDB7DEB72F974B
:100550000FB6F894DEBF0FBECDBF0E9422022B87DC
:100560003C874D875E876F87DE011696FE013B96BE
:1005700085E001900D928150E1F72E813F81488501
:1005800059856A8522231CF0121624F005C040E02C
:1005900051E002C045E051E033231CF013162CF06B
:1005A00007C062E04BE051E003C061E040E151E090
:1005B000222329F4332319F460E043E151E05C8302
:1005C0004B835C8170E080E090E02F960FB6F8944A
:1005D000DEBF0FBECDBFDF91CF9108950F931F9364
:1005E000CF9382E00E94DD01C82F83E00E94DD01ED
:1005F000482F6C2F70E004E610E0609F9001619F2F
:10060000300D709F300D1124EFEFF0E0C901BF01F4
:100610000E944907C62F50E0409F9001419F300D36
:10062000509F300D1124C901BF010E944907962F28
:100630008C2FCF911F910F910895CF93DF93CDB75A
:10064000DEB72A970FB6F894DEBF0FBECDBF0E946B
:10065000F6010E9453050E945C03CC24DD240F2E7A
:10066000F5E0FF2EF02D0E94A3022E833F834887E2
:1006700059876A87DE011196FE0136968F2D01900B
:100680000D928150E1F70D81112707FD109589E04A
:1006900090E0A3E081509040A040E1F700C000C08E
:1006A00080E090E00E940202AC01C801B6010E9405
:1006B000D703C82ED92ED7CF0F931F93CF93DF9395
:1006C0008BE191E00E94320681E090E00E94E60416
:1006D000C0E1D0E00CE211E0C8010E94320621978F
:1006E000D9F782E090E064E070E00E94F4058EE2C9
:1006F00091E00E943206C2E0D0E0CE0160E070E0FE
:100700000E94F4058CE70E9416062196C730D10599
:10071000A1F7C2E0D0E0CE016FE070E00E94F405E6
:100720008CE70E9416062196C730D105A1F783E019
:1007300090E064E070E00E94F40588E391E00E949C
:10074000320684E090E064E070E00E94F40582E408
:1007500091E00E94320685E090E064E070E00E9443
:10076000F4058CE491E00E94320686E090E064E0BB
:1007700070E00E94F40586E591E00E94320687E071
:1007800090E00E94E6048BE20E941606CEE0D0E0E4
:100790000CE211E0C8010E9432062197D9F78BE2E2
:1007A0000E941606DF91CF911F910F910895EF924D
:1007B000FF920F931F93CF93DF93EC018B017A018C
:1007C000CB01029665E070E00E94F4058EE30E9482
:1007D0001606112324F00730110524F405C000E0AB
:1007E00010E002C005E010E0C130D105C9F40115E8
:1007F000110591F1C801029665E070E00E94F405D0
:1008000080E20E941606E8012197C801019665E082
:1008100070E00E94F4058EE30E9416068E01CDC0A2
:10082000C230D105C9F405301105B1F0C8010296F6
:1008300065E070E00E94F40580E20E941606E8017F
:100840002196C801039665E070E00E94F4058EE3EE
:100850000E9416068E01B1C0E114F10409F4ADC086
:100860000230110509F450C00330110544F401159C
:10087000110571F00130110509F09FC027C0033048
:10088000110509F45FC00430110509F096C078C065
:100890000E94450583E090E065E070E00E94F40569
:1008A00080E691E00E9432068FEB97E2A9E081504A
:1008B0009040A040E1F700C000000E94450580E0A4
:1008C00090E00E94E6040E945C0377C00E94450508
:1008D00083E090E065E070E00E94F40589E691E035
:1008E0000E9432068FEB97E2A9E081509040A04031
:1008F000E1F700C000000E94450580E090E00E9402
:10090000E6040E945C0359C00E94450583E090E024
:1009100065E070E00E94F40582E791E00E943206F3
:100920008FEB97E2A9E081509040A040E1F700C032
:1009300000000E94450580E090E00E94E6040E94CD
:100940005C033BC00E94450583E090E065E070E0F9
:100950000E94F4058BE791E00E9432068FEB97E24C
:10096000A9E081509040A040E1F700C000000E9443
:10097000450580E090E00E94E6040E945C031DC0F3
:100980000E94450583E090E065E070E00E94F40578
:1009900084E891E00E9432068FEB97E2A9E0815053
:1009A0009040A040E1F700C000000E94450580E0B3
:1009B00090E00E94E6040E945C03802F912FDF915B
:1009C000CF911F910F91FF90EF900895E0918F01CB
:1009D000F09190011082E0918F01F091900120E15F
:1009E0002083883091056CF4E0918F01F0919001A3
:1009F00090EB9083E0918F01F0919001806B808368
:100A000010C0E0918F01F091900120EB2083E091E4
:100A10008F01F091900168E070E00E944907806BBF
:100A2000808380E090E00895E0918F01F091900143
:100A300081E28083E0918F01F09190011082E0913A
:100A40008F01F09190018FE78083E0918F01F09109
:100A5000900182E28083E0918F01F09190011082F9
:100A6000E0918F01F09190018FE0808308950E94C2
:100A7000E60480E890E0E0918D01F0918E01108213
:100A80000197C9F780E090E00895CF93DF93C0E02D
:100A9000D0E0CE010E9437052196C830D105C9F7B4
:100AA000DF91CF91089585B7806885BF80B7806258
:100AB00080BFE0918F01F09190018EEA8083E091F8
:100AC0008F01F091900181EA8083E0918F01F09194
:100AD00090018AED8083E0918F01F091900182E195
:100AE0008083E0918F01F091900188EC8083E09108
:100AF0008F01F091900188EA8083E0918F01F0915D
:100B000090018FE38083E0918F01F091900185ED5A
:100B10008083E0918F01F091900180E88083E091E3
:100B20008F01F091900181E88083E0918F01F09135
:100B3000900180E58083E0918F01F091900189ED33
:100B40008083E0918F01F091900181E28083E091B8
:100B50008F01F091900180E28083E0918F01F0910C
:100B6000900182E08083E0918F01F09190018BED04
:100B70008083E0918F01F091900180E38083E09188
:100B80008F01F09190018DEA8083E0918F01F091C7
:100B900090011082E0918F01F091900184EA8083AE
:100BA000E0918F01F091900186EA8083E0918F01BE
:100BB000F09190018FEA8083E0918F01F091900194
:100BC00080EB8083E0918F01F09190011082E091A1
:100BD0008F01F091900180E180830E9445050E9481
:100BE000140580E090E008950F931F93CF93DF9357
:100BF000EC018B010E941405CE010E94E604003135
:100C000011056CF4E0918F01F09190011082E09158
:100C10008F01F091900116950795005F008380E0A9
:100C200090E0DF91CF911F910F910895282F30E030
:100C3000220F331F220F331F220F331F80E090E05B
:100C400020593040A0918D01B0918E01F901E80F3B
:100C5000F91FE491EC9301968830910599F780E0B3
:100C600090E00895CF93DF93EC018881882331F0E1
:100C700021960E94160689918823D9F780E090E09A
:100C8000DF91CF91089585B7806885BF80B7806276
:100C900080BF80E090E00895FC01E050F84E608352
:100CA000408100D000D000D0EDB7FEB7319621E9E9
:100CB00031E0ADB7BEB712963C932E931197938354
:100CC0008283448315820E94BA078DB79EB7069629
:100CD0000FB6F8949EBF0FBE8DBF80E090E00895E0
:100CE000CF92DF92EF92FF920F931F93CF93DF93F8
:100CF00084EA91E00E94CF07EE24FF24C0E0D0E018
:100D00000BEB11E08C2F8095FE01E050F84E8083B4
:100D10009081981739F190812DB73EB72850304017
:100D20000FB6F8943EBF0FBE2DBFEDB7FEB731969C
:100D3000ADB7BEB712961C930E931197D383C2839F
:100D400094831582868317820E94BA070894E11C57
:100D5000F11C2DB73EB7285F3F4F0FB6F8943EBF4A
:100D60000FBE2DBF219638E0C030D30759F600E002
:100D700010E0C0E0D0E00F2EFBEFCF2EF1E0DF2E31
:100D8000F02D8C2F8095FE01E050F84E9081981741
:100D900019F19081ADB7BEB718970FB6F894BEBFE2
:100DA0000FBEADBFEDB7FEB731961296DC92CE9274
:100DB0001197D383C28394831582868317820E94FE
:100DC000BA070F5F1F4F2DB73EB7285F3F4F0FB6D3
:100DD000F8943EBF0FBE2DBF219638E0C030D30738
:100DE00081F600D000D000D0EDB7FEB731968AE38F
:100DF00092E0ADB7BEB712969C938E931197F38293
:100E0000E282158304830E94BA072DB73EB72A5F9A
:100E10003F4F0FB6F8943EBF0FBE2DBFDF91CF916D
:100E20001F910F91FF90EF90DF90CF9008955D9B01
:100E3000FECF8CB980E090E008955F9BFECF8CB12F
:100E4000089589B990BD88E18AB98EE880BD87E1AF
:100E500097E06DE177E00E94700790939302809392
:100E6000920280E090E00895CF93DF93EC018881B7
:100E7000882351F0219660919202709193020E9412
:100E8000170789918823B9F780E090E0DF91CF912F
:100E9000089597FB092E07260AD077FD04D00CD0C1
:100EA00006D000201AF4709561957F4F0895F6F7EB
:100EB000909581959F4F0895AA1BBB1B51E107C0D8
:100EC000AA1FBB1FA617B70710F0A61BB70B881FDA
:100ED000991F5A95A9F780959095BC01CD01089569
:100EE0000F931F93CF93DF938C01EB01009711F4C5
:100EF0002097C1F181E090E06EE070E00E94DB0994
:100F0000FC01009789F180E88383209771F0D387F3
:100F1000C28781E883838091940290919502009723
:100F200021F4F0939502E093940201151105E1F08C
:100F300011870087838182608383809196029091DC
:100F40009702009789F4F0939702E09396028091BC
:100F5000980290919902009739F4F0939902E093E6
:100F6000980202C0E0E0F0E0CF01DF91CF911F9145
:100F70000F910895A0E0B0E0E0ECF7E00C94DF0BF7
:100F8000FE01359661917191809196029091970240
:100F9000AF010E94FD072096E2E00C94FB0B0F933B
:100FA0001F93CF93DF938C01E0919602F09197020B
:100FB000838181FF1AC0C0E0D0E005C00995009789
:100FC00011F0CFEFDFEFF80181918F016091960270
:100FD00070919702DB011896ED91FC911997882387
:100FE00069F78AE00995009711F0CFEFDFEFCE01A6
:100FF000DF91CF911F910F910895ADE0B0E0E3E054
:10100000F8E00C94CF0B3C017D876C875A01FC0102
:1010100017821682838181FFC8C12E010894411C6A
:10102000511CF3019381EC85FD8593FD859193FF20
:101030008191FD87EC87882309F4B3C1853241F49F
:1010400093FD859193FF8191FD87EC87853229F48B
:1010500090E0B3010E94450BE4CFFF24EE2410E0A2
:101060001032B0F48B3269F08C3228F4803251F0B7
:10107000833271F40BC08D3239F0803349F4116042
:101080002CC01260146029C0186027C0106125C0F0
:1010900017FD2EC0282F20532A3098F416FF08C0C1
:1010A0008F2D880FF82EFF0CFF0CF80EF20E15C0D6
:1010B0008E2D880FE82EEE0CEE0CE80EE20E10627C
:1010C0000CC08E3221F416FD6CC1106406C08C3643
:1010D00011F4106802C0883659F4EC85FD8593FD43
:1010E000859193FF8191FD87EC87882309F0B8CF24
:1010F000982F9554933018F09052933038F424E0A0
:1011000030E0A20EB31E3FE339830FC0833631F0C7
:10111000833781F0833509F05AC022C0F501808100
:10112000898322E030E0A20EB31E21E0C22ED12C32
:10113000420114C092E0292E312C2A0C3B1CF501EF
:101140008080918016FF03C06F2D70E002C06FEFAA
:101150007FEFC4010E943A0B6C0151011F7715C04B
:1011600082E0282E312C2A0C3B1CF50180809180D6
:1011700016FF03C06F2D70E002C06FEF7FEFC40158
:101180000E94280B6C011068510113FD1CC006C0A1
:1011900080E290E0B3010E94450BEA948E2D90E02E
:1011A000C816D906A8F30FC0F40117FD859117FFE3
:1011B00081914F0190E0B3010E94450BE110EA9448
:1011C0000894C108D108C114D10471F7E7C084366E
:1011D00011F0893651F5F50117FF07C08081918123
:1011E000A281B38124E030E008C080819181AA27E8
:1011F00097FDA095BA2F22E030E0A20EB31E012F7A
:101200000F76B7FF08C0B095A095909581959F4F38
:10121000AF4FBF4F0068BC01CD01A2012AE030E012
:101220000E94710BD82ED4183FC0853721F41F7E41
:101230002AE030E020C0197F8F36A9F0803720F4F3
:10124000883509F0AEC00BC0803721F0883709F02F
:10125000A8C001C0106114FF09C0146007C014FFCA
:1012600008C0166006C028E030E005C020E130E08C
:1012700002C020E132E0F50117FF07C060817181F3
:101280008281938144E050E006C06081718180E0FA
:1012900090E042E050E0A40EB51EA2010E94710B46
:1012A000D82ED418012F0F7706FF09C00E7FDF1448
:1012B00030F404FF06C002FD04C00F7E02C01D2DE5
:1012C00001C01F2D802F90E004FF0CC0FE01ED0D2A
:1012D000F11D2081203311F4097E09C002FF06C0F0
:1012E0001E5F05C086789070009709F01F5F802E02
:1012F000992403FD12C000FF0DC0FD2C1E1550F4F3
:10130000FE0CF11A1E2D06C080E290E0B3010E948F
:10131000450B1F5F1E15C0F304C01E1510F4E11A23
:1013200001C0EE2484FE0FC080E390E0B3010E9470
:10133000450B82FE1FC081FE03C088E590E010C00F
:1013400088E790E00DC0C40186789070009791F016
:1013500081FC02C080E201C08BE207FD8DE290E0DB
:10136000B3010E94450B06C080E390E0B3010E94E8
:10137000450BFA94DF14C0F3DA94F201ED0DF11D80
:10138000808190E0B3010E94450BDD20A9F706C0E3
:1013900080E290E0B3010E94450BEA94EE20C1F791
:1013A00040CEF3018681978102C08FEF9FEF2D968B
:1013B000E2E10C94EB0B0F931F93CF93DF93689FA5
:1013C0008001699F100D789F100D1124C8010E94A3
:1013D000F909C82FD92F209731F08C2F60E070E0E9
:1013E000A8010E94330BCE01DF91CF911F910F9185
:1013F0000895CF93DF93AC018230910510F442E061
:1014000050E0E0919C02F0919D0220E030E0A0E0ED
:10141000B0E024C08081918184179507D0F08417B3
:10142000950771F482819381109729F013969C930C
:101430008E9312972CC090939D0280939C0227C09C
:101440002115310519F08217930718F49C01BD018D
:10145000EF0192818381DF01E92FF82F3097D1F6D8
:1014600021153105F9F0C901841B950B84309105D4
:1014700080F48A819B816115710521F0FB019383C2
:10148000828304C090939D0280939C02FE01329659
:1014900042C0FE01E80FF91F4193519302979983CF
:1014A000888339C080919A0290919B02009741F401
:1014B00080918C0290918D0290939B0280939A026E
:1014C00020918A0230918B022115310541F42DB70C
:1014D0003EB780918E0290918F02281B390BE091CC
:1014E0009A02F0919B02E217F30798F42E1B3F0B30
:1014F0002417350770F0CA0102962817390748F0FB
:101500008E0F9F1F90939B0280939A024193519359
:1015100002C0E0E0F0E0CF01DF91CF9108950F939A
:101520001F93CF93DF939C01009709F48CC0DC01DB
:10153000129713961C921E92129760919C027091C2
:101540009D026115710589F48D919C911197820F0F
:10155000931F20919A0230919B022817390769F551
:10156000B0939B02A0939A026EC0FB0140E050E052
:1015700001C0FC01EA17FB0730F482819381AF01BF
:101580000097B9F71FC0E9012297FB83EA8308811E
:101590001981C901800F911F8E179F0759F480810F
:1015A0009181800F911F0296998388838281938114
:1015B0009B838A834115510529F4B0939D02A09322
:1015C0009C0241C0FA01B383A283C191D191EC0F77
:1015D000FD1FAE17BF0781F4F901929182918C0F24
:1015E0009D1F0296DA0111969C938E9382819381BE
:1015F00013969C938E931297E0E0F0E002C0FB01FB
:10160000BC01DB0112968D919C9113970097B9F75D
:10161000CB0102962D913C911197820F931F20913F
:101620009A0230919B022817390769F4309729F400
:1016300010929D0210929C0202C01382128270933B
:101640009B0260939A02DF91CF911F910F910895B1
:10165000FC010590615070400110D8F7809590957D
:101660008E0F9F1F0895DC0101C06D9341505040C3
:10167000E0F70895FC016150704001900110D8F727
:10168000809590958E0F9F1F08950F931F93CF9372
:10169000DF938C01EB018B8181FF1BC082FF0DC0AA
:1016A0002E813F818C819D812817390764F4E88160
:1016B000F9810193F983E88306C0E885F985802FD5
:1016C0000995009731F48E819F8101969F838E83C7
:1016D00002C00FEF1FEFC801DF91CF911F910F9153
:1016E0000895FA01AA27283051F1203181F1E894B8
:1016F0006F936E7F6E5F7F4F8F4F9F4FAF4FB1E005
:101700003ED0B4E03CD0670F781F891F9A1FA11DFF
:10171000680F791F8A1F911DA11D6A0F711D811D00
:10172000911DA11D20D009F468943F912AE0269FC5
:1017300011243019305D3193DEF6CF010895462F24
:101740004770405D4193B3E00FD0C9F7F6CF462F05
:101750004F70405D4A3318F0495D31FD405241936E
:1017600002D0A9F7EACFB4E0A6959795879577952B
:101770006795BA95C9F700976105710508959B01B2
:10178000AC010A2E06945795479537952795BA953B
:10179000C9F7620F731F841F951FA01D08952F9214
:1017A0003F924F925F926F927F928F929F92AF92F1
:1017B000BF92CF92DF92EF92FF920F931F93CF933E
:1017C000DF93CDB7DEB7CA1BDB0B0FB6F894DEBFD5
:1017D0000FBECDBF09942A88398848885F846E84FB
:1017E0007D848C849B84AA84B984C884DF80EE8045
:1017F000FD800C811B81AA81B981CE0FD11D0FB64E
:10180000F894DEBF0FBECDBFED010895F894FFCF71
:101810004C45465400524947485400444F574E00E7
:101820005550004E45555452414C003D3D3D3D3DC7
:101830003D4D656E753D3D3D3D3D3D002D00204FCC
:101840007074696F6E203100204F7074696F6E2064
:101850003200204F7074696F6E203300204F707417
:10186000696F6E203400204F7074696F6E203500F0
:101870004F7074696F6E2031004F7074696F6E2005
:1018800032004F7074696F6E2033004F7074696F4F
:101890006E2034004F7074696F6E203500001200A6
:1018A000105352414D5B25585D203D202530325864
:1018B000200A0D005374617274696E67205352419F
:1018C0004D20746573742E2E2E0D005352414D2001
:1018D0006572726F72202877726974652070686112
:1018E0007365293A206578745F72616D5B25645D6C
:1018F000203D2025303258202873686F756C642095
:1019000062652025303258290D0A005352414D207E
:101910006572726F722028726561642070686173ED
:1019200065293A206578745F72616D5B25645D207E
:101930003D2025303258202873686F756C64206212
:10194000652025303258290D0A005352414D20742C
:1019500065737420636F6D706C657465642077695E
:101960007468202564206572726F727320696E201E
:10197000777269746520706861736520616E642098
:101980002564206572726F727320696E20726561C2
:10199000642070686173650D0A0000009E022000DB
:00000001FF
