:100000000C9446000C9465000C9465000C946500FB
:100010000C9465000C9465000C9465000C946500CC
:100020000C9465000C9465000C9465000C946500BC
:100030000C9465000C9465000C9465000C946500AC
:100040000C9465000C9465000C9465000C9465009C
:100050000C9465000C9465000C9465000C9465008C
:100060000C9465000C9465000C9465000C9465007C
:100070000C9465000C9465000C9465000C9465006C
:100080000C9465000C9465000C94650011241FBE4F
:10009000CFEFD0E1DEBFCDBF11E0A0E0B1E0E6EEF2
:1000A000FEE000E00BBF02C007900D92AA3BB10733
:1000B000D9F711E0AAEBB1E001C01D92A63CB1074F
:1000C000E1F70E943A010C9471070C9400000E9421
:1000D00090028FE060EE40E00E946E028BE263E0EF
:1000E00043E00E946E0280E008950E94B30282FF06
:1000F00006C084FF06C083FD06C080E5089580E346
:10010000089580E4089580E00895462F643028F033
:1001100063E043E00E946E02089563E00E946E0275
:100120000895EF92FF921F93CF93DF937C010E947B
:100130007500C82F882329F40E947500C82F8823D2
:10014000D9F3F7016081718176956795769567950A
:10015000769567958C2F8F5F0E944502F70160812D
:100160006295660F607E8C2F8E5F0E944502F701BC
:100170006281662381F0D0E01C2F1A5FF701ED0F3A
:10018000F11D812F8D0F63810E944502DF5FF70112
:100190006281D61798F38C2F8B5F0E94450280E016
:1001A0000E94590280E0DF91CF911F91FF90EF9064
:1001B000089581E090E008958CE20E94330280FD72
:1001C00007C08CE20E94330281FF04C080E70895DB
:1001D00080E6089580E00895FF920F931F93CF93D8
:1001E000DF938C010E94DC00F82E8823A9F18B5F3D
:1001F0000E943302F8018283882381F0C0E0DF2D62
:10020000DA5F8D2F8C0F0E943302F801EC0FF11D85
:100210008383CF5FF8018281C81798F38F2D8E5F9B
:100220000E943302829586958770F801808311823F
:100230008F2D8F5F0E94330290E0880F991F880FE7
:10024000991F880F991FF801918380838CE261E0E8
:1002500040E00E946E0202C000E010E0802F912F6B
:10026000DF91CF911F910F91FF90089580E090E072
:1002700008950895CF93DF93CDB7DEB766970FB695
:10028000F894DEBF0FBECDBF8AE190E00E94EA0283
:1002900000D080E091E0ADB7BEB712969C938E93EC
:1002A00011970E9493040F900F900E94670000D056
:1002B00081E191E0EDB7FEB7928381830E949304C0
:1002C0001D861C861E861F86188A198A1A8A1B8A12
:1002D0001C8A1D8A1E8A0F900F908BE090E00E946E
:1002E0001A0388E190E09A83898387E08B8380E01A
:1002F00091E0E4E0F0E0EC0FFD1FE80FF11D9083CA
:100300008F5F8730B1F78FE098E9A2E0815090408D
:10031000A040E1F700C000008E85882361F10F2E18
:10032000FFE0EF2EFF24F02DEC0EFD1E00E010E0AC
:100330000F2EF1E2CF2EF1E0DF2EF02DD7018D91BF
:100340007D0100D000D0EDB7FEB73196ADB7BEB796
:100350001296DC92CE921197828313820E949304AC
:100360000F5F1F4F8E8590E00F900F900F900F90B2
:10037000081719071CF300D084E291E0EDB7FEB72F
:10038000928381830E9493040F900F9007E211E003
:100390000F2EF6E3EF2EF1E0FF2EF02D0F2EFAE4F4
:1003A000CF2EF1E0DF2EF02D0F2EFBE5AF2EF1E08A
:1003B000BF2EF02D0F2EF0E78F2EF1E09F2EF02DA7
:1003C0008FE990EFA9E181509040A040E1F700C093
:1003D0000000CE01019660E00E94910000D0ADB710
:1003E000BEB712961C930E9311970E9493048FE947
:1003F00090EFA9E181509040A040E1F700C00000DB
:100400000F900F90CE010C960E94EC0000D0ADB77B
:10041000BEB71296FC92EE9211970E94930400D000
:10042000EDB7FEB7D282C1828C859D85948383838C
:100430000E949304EDB7FEB73196ADB7BEB71296E2
:10044000BC92AE9211978E85828313820E94930490
:100450000F900F90EDB7FEB7928281820E949304B5
:100460000F900F90ADCFCF93C82F0E94D40283E09E
:100470000E94CB028C2F0E94CB020E94CF02C82F79
:100480000E94D6028C2FCF910895CF93DF93D82F5F
:10049000C62F0E94D40282E00E94CB028D2F0E94C0
:1004A000CB028C2F0E94CB020E94D602DF91CF910B
:1004B0000895CF93C82F0E94D402C83058F421E089
:1004C00030E0C90102C0880F991FCA95E2F7806821
:1004D0000E94CB020E94D602CF9108951F93CF9322
:1004E000DF93182FD62FC42F0E94D40285E00E94DC
:1004F000CB02812F0E94CB028D2F0E94CB028C2F2A
:100500000E94CB020E94D602DF91CF911F910895E5
:100510000E94D40280EC0E94CB020E94D602089571
:10052000CF93DF930F92CDB7DEB70E94C1020E9436
:1005300088028EE00E94330289838981807E803820
:1005400069F000D08FE791E0EDB7FEB79283818329
:100550000E9493040F900F9081E001C080E00F9003
:10056000DF91CF910895CF930E94D40280EA0E9438
:10057000CB020E94CF02C82F0E94D6028C2FCF91AF
:10058000089587B3876087BBBB988DB183658DB9AC
:1005900080E090E008958FB9779BFECF08951FB853
:1005A000779BFECF8FB10895C0980895C09A0895A3
:1005B000EBE9F0E0908195FFFDCF80939C0080E017
:1005C00090E00895EBE9F0E080818823ECF78091DA
:1005D0009C0008958093990090939800EAE9F0E0D8
:1005E000808188618083EDE9F0E080818E60808386
:1005F00088ED92E062EE72E00E9449049093BB01A4
:100600008093BA0180E090E00895CF93DF93EC01EE
:100610008881882351F021966091BA017091BB01C5
:100620000E94D80289918823B9F780E090E0DF9199
:10063000CF910895CF93DF93AC018230910510F4F0
:1006400042E050E0E091BE01F091BF0120E030E0D7
:10065000A0E0B0E024C08081918184179507D0F09C
:100660008417950771F482819381109729F013966E
:100670009C938E9312972CC09093BF018093BE01E0
:1006800027C02115310519F08217930718F49C0132
:10069000BD01EF0192818381DF01E92FF82F3097AF
:1006A000D1F621153105F9F0C901841B950B843071
:1006B000910580F48A819B816115710521F0FB0110
:1006C0009383828304C09093BF018093BE01FE0197
:1006D000329642C0FE01E80FF91F419351930297F1
:1006E0009983888339C08091BC019091BD010097A6
:1006F00041F48091B5019091B6019093BD01809332
:10070000BC012091B3013091B4012115310541F4B0
:100710002DB73EB78091B7019091B801281B390BD6
:10072000E091BC01F091BD01E217F30798F42E1B94
:100730003F0B2417350770F0CA01029628173907B6
:1007400048F08E0F9F1F9093BD018093BC01419391
:10075000519302C0E0E0F0E0CF01DF91CF91089526
:100760000F931F93CF93DF939C01009709F48CC0E4
:10077000DC01129713961C921E9212976091BE0193
:100780007091BF016115710589F48D919C9111974C
:10079000820F931F2091BC013091BD0128173907AA
:1007A00069F5B093BD01A093BC016EC0FB0140E0B0
:1007B00050E001C0FC01EA17FB0730F4828193810D
:1007C000AF010097B9F71FC0E9012297FB83EA83C5
:1007D00008811981C901800F911F8E179F0759F455
:1007E00080819181800F911F0296998388838281F5
:1007F00093819B838A834115510529F4B093BF01EE
:10080000A093BE0141C0FA01B383A283C191D191EB
:10081000EC0FFD1FAE17BF0781F4F9019291829191
:100820008C0F9D1F0296DA0111969C938E93828104
:10083000938113969C938E931297E0E0F0E002C0B0
:10084000FB01BC01DB0112968D919C9113970097DF
:10085000B9F7CB0102962D913C911197820F931F0E
:100860002091BC013091BD012817390769F43097F8
:1008700029F41092BF011092BE0102C013821282AD
:100880007093BD016093BC01DF91CF911F910F91D7
:1008900008950F931F93CF93DF938C01EB01009783
:1008A00011F42097C1F181E090E06EE070E00E94C9
:1008B000AC06FC01009789F180E88383209771F0F2
:1008C000D387C28781E883838091C0019091C10161
:1008D000009721F4F093C101E093C00101151105C7
:1008E000E1F0118700878381826083838091C20158
:1008F0009091C301009789F4F093C301E093C20182
:100900008091C4019091C501009739F4F093C5011D
:10091000E093C40102C0E0E0F0E0CF01DF91CF91AD
:100920001F910F910895CF93DF93CDB7DEB7FE01EE
:100930003596619171918091C2019091C301AF018F
:100940000E94A504DF91CF9108952F923F924F927C
:100950005F926F927F928F929F92AF92BF92CF924F
:10096000DF92EF92FF920F931F93CF93DF93CDB758
:10097000DEB72D970FB6F894DEBF0FBECDBF3C019A
:100980007D876C875A01FC0117821682838181FF63
:10099000C8C12E010894411C511CF3019381EC85C0
:1009A000FD8593FD859193FF8191FD87EC878823D9
:1009B00009F4B3C1853241F493FD859193FF819190
:1009C000FD87EC87853229F490E0B3010E94E706A9
:1009D000E4CFFF24EE2410E01032B0F48B3269F043
:1009E0008C3228F4803251F0833271F40BC08D3296
:1009F00039F0803349F411602CC01260146029C0B2
:100A0000186027C0106125C017FD2EC0282F205365
:100A10002A3098F416FF08C08F2D880FF82EFF0C8F
:100A2000FF0CF80EF20E15C08E2D880FE82EEE0C7E
:100A3000EE0CE80EE20E10620CC08E3221F416FDB0
:100A40006CC1106406C08C3611F4106802C0883680
:100A500059F4EC85FD8593FD859193FF8191FD8788
:100A6000EC87882309F0B8CF982F9554933018F06D
:100A70009052933038F424E030E0A20EB31E3FE3EE
:100A800039830FC0833631F0833781F0833509F025
:100A90005AC022C0F5018081898322E030E0A20E95
:100AA000B31E21E0C22ED12C420114C092E0292EA7
:100AB000312C2A0C3B1CF5018080918016FF03C06D
:100AC0006F2D70E002C06FEF7FEFC4010E94DC0663
:100AD0006C0151011F7715C082E0282E312C2A0CA1
:100AE0003B1CF5018080918016FF03C06F2D70E0E4
:100AF00002C06FEF7FEFC4010E94CA066C0110684C
:100B0000510113FD1CC006C080E290E0B3010E94B9
:100B1000E706EA948E2D90E0C816D906A8F30FC018
:100B2000F40117FD859117FF81914F0190E0B3010A
:100B30000E94E706E110EA940894C108D108C114A4
:100B4000D10471F7E7C0843611F0893651F5F5010B
:100B500017FF07C080819181A281B38124E030E03A
:100B600008C080819181AA2797FDA095BA2F22E025
:100B700030E0A20EB31E012F0F76B7FF08C0B0956C
:100B8000A095909581959F4FAF4FBF4F0068BC01D6
:100B9000CD01A2012AE030E00E941307D82ED4181C
:100BA0003FC0853721F41F7E2AE030E020C0197F46
:100BB0008F36A9F0803720F4883509F0AEC00BC01D
:100BC000803721F0883709F0A8C001C0106114FFF8
:100BD00009C0146007C014FF08C0166006C028E0F2
:100BE00030E005C020E130E002C020E132E0F50154
:100BF00017FF07C0608171818281938144E050E0DA
:100C000006C06081718180E090E042E050E0A40E77
:100C1000B51EA2010E941307D82ED418012F0F77FA
:100C200006FF09C00E7FDF1430F404FF06C002FD8A
:100C300004C00F7E02C01D2D01C01F2D802F90E02B
:100C400004FF0CC0FE01ED0DF11D2081203311F4D5
:100C5000097E09C002FF06C01E5F05C0867890703D
:100C6000009709F01F5F802E992403FD12C000FF3A
:100C70000DC0FD2C1E1550F4FE0CF11A1E2D06C0E1
:100C800080E290E0B3010E94E7061F5F1E15C0F3EB
:100C900004C01E1510F4E11A01C0EE2484FE0FC03A
:100CA00080E390E0B3010E94E70682FE1FC081FE50
:100CB00003C088E590E010C088E790E00DC0C40153
:100CC00086789070009791F081FC02C080E201C0AC
:100CD0008BE207FD8DE290E0B3010E94E70606C0BB
:100CE00080E390E0B3010E94E706FA94DF14C0F3BA
:100CF000DA94F201ED0DF11D808190E0B3010E94C4
:100D0000E706DD20A9F706C080E290E0B3010E946B
:100D1000E706EA94EE20C1F740CEF3018681978181
:100D200002C08FEF9FEF2D960FB6F894DEBF0FBE77
:100D3000CDBFDF91CF911F910F91FF90EF90DF908A
:100D4000CF90BF90AF909F908F907F906F905F906B
:100D50004F903F902F9008950F931F93CF93DF9361
:100D6000689F8001699F100D789F100D1124C801A4
:100D70000E941A03C82FD92F209731F08C2F60E0E2
:100D800070E0A8010E94D506CE01DF91CF911F919E
:100D90000F910895FC010590615070400110D8F743
:100DA000809590958E0F9F1F0895DC0101C06D9373
:100DB00041505040E0F70895FC01615070400190AF
:100DC0000110D8F7809590958E0F9F1F08950F936F
:100DD0001F93CF93DF938C01EB018B8181FF1BC0AD
:100DE00082FF0DC02E813F818C819D81281739079C
:100DF00064F4E881F9810193F983E88306C0E8850A
:100E0000F985802F0995009731F48E819F81019695
:100E10009F838E8302C00FEF1FEFC801DF91CF9138
:100E20001F910F910895FA01AA27283051F120311E
:100E300081F1E8946F936E7F6E5F7F4F8F4F9F4F6E
:100E4000AF4FB1E03ED0B4E03CD0670F781F891FB0
:100E50009A1FA11D680F791F8A1F911DA11D6A0F7E
:100E6000711D811D911DA11D20D009F468943F9131
:100E70002AE0269F11243019305D3193DEF6CF0130
:100E80000895462F4770405D4193B3E00FD0C9F7F6
:100E9000F6CF462F4F70405D4A3318F0495D31FD63
:100EA0004052419302D0A9F7EACFB4E0A6959795B6
:100EB000879577956795BA95C9F70097610571058C
:100EC00008959B01AC010A2E0694579547953795D6
:100ED0002795BA95C9F7620F731F841F951FA01D30
:060EE0000895F894FFCF15
:100EE6005561727420696E697469617465640A0D6E
:100EF6000043616E20696E697469617465640A0DE8
:100F0600002569000A0D004D6573736167652073DE
:100F1600656E740A0D0052656369766564206D65B9
:100F260073736167653A200A0D004D6573736167D7
:100F3600652069643A2025690A0D004D6573736161
:100F46006765206C656E6774683A2025690A0D002E
:100F56004D65737361676520646174613A20004D65
:100F6600435032353135206973204E4F5420696E17
:100F760020636F6E66696775726174696F6E206D46
:100F86006F6465206166746572207265736574218D
:0A0F96000A0D000000C60120000053
:00000001FF
