:100000000C9446000C9465000C9465000C946500FB
:100010000C9465000C9465000C9465000C946500CC
:100020000C9465000C9465000C9465000C946500BC
:100030000C9465000C9465000C9465000C946500AC
:100040000C9465000C9465000C9465000C9465009C
:100050000C9465000C9465000C9465000C9465008C
:100060000C9465000C9465000C9465000C9465007C
:100070000C9465000C9465000C9465000C9465006C
:100080000C9465000C9465000C94650011241FBE4F
:10009000CFEFD0E1DEBFCDBF11E0A0E0B1E0E0E105
:1000A000F1E000E00BBF02C007900D92A230B10753
:1000B000D9F711E0A2E0B1E001C01D92A230B10772
:1000C000E1F70E947E000C9486000C9400008EB52F
:1000D00082608EBD8FB582608FBD8EB580618EBD12
:1000E0008EB588608EBD8FB580628FBD81E090E057
:1000F00097BD86BD19BC18BCBE9A08958FEF87BB0B
:100100000E94670088B3809588BBFCCFF894FFCF2E
:020110004006A7
:00000001FF
