:1000000045C0000061C000005FC000005DC000008E
:100010005BC0000059C0000057C0000055C0000080
:1000200053C0000051C000004FC000004DC0000090
:100030004BC0000049C0000047C0000045C00000A0
:1000400043C0000041C000003FC000003DC00000B0
:100050003BC0000039C0000037C0000035C00000C0
:1000600033C0000031C000002FC000002DC00000D0
:100070002BC0000029C0000027C0000025C00000E0
:1000800023C00000DBC200001FC0000011241FBEFF
:10009000CFEFD0E1DEBFCDBF12E0A0E0B1E0EEE7F0
:1000A000F3E100E00BBF02C007900D92A638B10744
:1000B000D9F722E0A6E8B2E001C01D92A939B20743
:1000C000E1F705D10C94BD099BCF3F9887B18066BD
:1000D00087B987B1807E87B986B1806A86B980E0AA
:1000E00090E0089586B1806A86B9369A089519D24B
:1000F0004FEF64E680E6EBD140E060EE8FE0E7D1C1
:1001000080E090E0089580E3FFD184FD05C085FF85
:1001100006C02EEF3FEF05C02FEF3FEF02C020E0FB
:1001200030E0822F932F089580E3EED18695869557
:10013000869591E08927817090E008951F93CF9371
:10014000DF93EC01F1DF892B71F16881798175957D
:100150006795759567957595679581E398D16881E1
:100160007981660F771F62957295707F7627607F21
:10017000762782E38CD16A816F7085E388D18A818A
:10018000882361F010E0FE01E10FF11D6381812FF2
:100190008A5C7DD11F5F8A811817A8F381E088D11E
:1001A00020E030E009C0AFDF9095292F221F2227E1
:1001B000221F30E021503109822F932FDF91CF9100
:1001C0001F9108959F92AF92BF92CF92DF92EF92CC
:1001D000FF920F931F93CF93DF93CDB7DEB72B978B
:1001E0000FB6F894DEBF0FBECDBF7C018CE28CD180
:1001F00080FF31C081E688D1C82E82E685D1829504
:1002000086958770D12CCC0CDD1CCC0CDD1CCC0C65
:10021000DD1CC82A85E678D10F2EFFE09F2EF02D39
:100220009822A1F08E010C5F1F4F0F2EF6E6AF2E25
:10023000F02DA90C0F2EF6E6BF2EF02D8B2D64D1DC
:10024000F80181938F01B394BA10F8CF40E061E0D8
:100250008CE23DD103C0CC24CA94DC2CDA82C98262
:100260009B828BE0FE013196D70101900D928A9519
:10027000E1F7C7012B960FB6F894DEBF0FBECDBFD6
:10028000DF91CF911F910F91FF90EF90DF90CF9072
:10029000BF90AF909F90089516D08CE391E09F930C
:1002A0008F939FD58FEF8ABB14BADC9ADF9ADE98C2
:1002B000DE9A8BE491E09F938F9393D50F900F90EC
:1002C0000F900F900895B0D1889A899A0895CF938E
:1002D000DF93CDB7DEB766970FB6F894DEBF0FBEDB
:1002E000CDBFBD9AE1E6F0E080818E7F808389E119
:1002F00090E043D28CE591E09F938F9372D5F7DE27
:100300000F900F90892B71F483E791E09F938F9367
:1003100068D582E090E09A83898381E08B830F9097
:100320000F9007C089E891E09F938F935AD50F9063
:100330000F9013D1892B41F48FE991E09F938F9314
:1003400050D50F900F9007C085EB91E09F938F934E
:1003500048D50F900F90B9DE892B41F48BEC91E0DA
:100360009F938F933ED50F900F9007C081EE91E041
:100370009F938F9336D50F900F908EDF87EF91E08C
:100380009F938F932ED50BD187E192E09F938F930C
:1003900028D5A8DE0F900F900F900F90412C712C54
:1003A00000E010E00F2EF1E38F2EF2E09F2EF02DF3
:1003B0000F2EFCE3AF2EF2E0BF2EF02D0F2EF7E450
:1003C000CF2EF2E0DF2EF02D312CE12CF12C02C0EB
:1003D000732C870123E383E491E021508040904017
:1003E000E1F700C00000CE010C96ECDE5F84698866
:1003F0008C859D85019709F037C0652D772767FDAE
:100400007095872F972F7AD226E636E646EC50EC89
:1004100001D320E030EE41EC54E4DED141D2CB01F7
:10042000B3D0852D992787FD90959F935F929F92DA
:100430008F92D7D42889822F992787FD90959F93F3
:100440002F93BF92AF92CDD4862D992787FD90959B
:100450009F936F92DF92CF92C4D40FB6F894DEBF11
:100460000FBECDBF6110B6D085B1080F111D7394BA
:1004700095E07912AFCF043F114008F0A9CF439423
:100480004C82CE0101965ADE732C8701A3CFCF9305
:10049000DF93D82FC62FC4D082E0B6D08D2FB4D032
:1004A0008C2FB2D0BFD080E090E0DF91CF91089543
:1004B000CF93883018F4C82FC06801C0C0E8B0D00E
:1004C0008C2FA2D0AFD080E090E0CF9108951F9301
:1004D000CF93DF93182FD62FC42FA2D085E094D0CE
:1004E000812F92D08D2F90D08C2F8ED09BD080E0FA
:1004F00090E0DF91CF911F91089592D080EC84D04D
:1005000091D080E090E00895CF93C82F89D083E008
:100510007BD08C2F79D07ED0C82F84D08C2FCF91D8
:100520000895CF93DF931F92CDB7DEB764D0E5DF98
:100530008EE0EADF89838981807E803831F084E52E
:1005400092E035D121E030E002C020E030E0822F9F
:10055000932F0F90DF91CF9108958FB582688FBD53
:100560008FB58E7B8FBD8EB58A618EBD8EB58A7F2D
:100570008EBD84E391E597BD86BD8FE096E09BBD7F
:100580008ABD80E090E008959C01225A33402A3DC4
:10059000344010F49BBD8ABD80E090E008958C98B3
:1005A00094988C9A949A85B5846085BD85B5816050
:1005B00085BD949814BC84E190E006C024B525362E
:1005C000E8F314BC019721F024B52536B8F3F9CF30
:1005D000949A0895949814BC84E190E006C024B5E0
:1005E0002536E8F314BC019721F024B52536B8F37D
:1005F000F9CF949A089587B3876087BBBB9883E54A
:100600008DB980E090E008958FB9779BFECF80E0B0
:1006100090E0089580E0F8DF779BFECF8FB10895DA
:10062000C0980895C09A08958CE0809370008FEF71
:100630008093730084E08093740008951F920F925A
:100640000FB60F9211240BB60F922F933F938F93F7
:100650009F93EF93FF93809171008832C1F040F433
:10066000803199F0883199F0883009F060C00DC070
:100670008034B1F120F4883309F059C054C080357A
:1006800019F1883509F053C03DC010928C02809159
:100690008C0290918702891770F4E82FF0E0E857F8
:1006A000FD4F9081909373008F5F80938C0285E85B
:1006B0008093740043C0809186028160809386029B
:1006C00084E9809374003AC080918C029091730009
:1006D000E82FF0E0E857FD4F90838F5F80938C0206
:1006E00020918C0230E08091870290E001972817DA
:1006F000390724F485EC8093740020C085E880934A
:1007000074001CC080917300E0918C02F0E0E85707
:10071000FD4F80838091860281608093860284E908
:10072000809374000BC085EA8093740007C08091A9
:1007300071008093060184E080937400FF91EF9133
:100740009F918F913F912F910F900BBE0F900FBEF5
:100750000F901F901895EBE9F0E0908195FFFDCF89
:1007600080939C0080E090E00895EBE9F0E08081C8
:100770008823ECF780919C000895809399009093D2
:100780009800EAE9F0E0808188618083EDE9F0E09B
:1007900080818E60808365EB73E08BEA93E0D7D233
:1007A00090938E0280938D0280E090E00895CF9325
:1007B000DF93EC018881882349F0219660918D02B6
:1007C00070918E02C8DF89918111F8CF80E090E0AE
:1007D000DF91CF9108955058BB27AA270ED0E0C0D3
:1007E000D1D030F0D6D020F031F49F3F11F41EF478
:1007F000C6C00EF4E095E7FBBCC0E92FE2D080F361
:10080000BA17620773078407950718F071F49EF50D
:10081000FAC00EF4E0950B2EBA2FA02D0B01B901F2
:1008200090010C01CA01A0011124FF27591B99F066
:10083000593F50F4503E68F11A16F040A22F232F72
:10084000342F4427585FF3CF469537952795A795C2
:10085000F0405395C9F77EF41F16BA0B620B730B69
:10086000840BBAF09150A1F0FF0FBB1F661F771FDA
:10087000881FC2F70EC0BA0F621F731F841F48F48F
:10088000879577956795B795F7959E3F08F0B3CF15
:100890009395880F08F09927EE0F979587950895FF
:1008A00098D088F09F5790F0B92F9927B751A0F0B2
:1008B000D1F0660F771F881F991F1AF0BA95C9F7F4
:1008C00012C0B13081F09FD0B1E008959CC0672F75
:1008D000782F8827B85F39F0B93FCCF386957795A4
:1008E0006795B395D9F73EF490958095709561958D
:1008F0007F4F8F4F9F4F0895E89409C097FB3EF4B8
:1009000090958095709561957F4F8F4F9F4F99235C
:10091000A9F0F92F96E9BB279395F69587957795DA
:100920006795B795F111F8CFFAF4BB0F11F460FF9A
:100930001BC06F5F7F4F8F4F9F4F16C0882311F0F2
:1009400096E911C0772321F09EE8872F762F05C006
:10095000662371F096E8862F70E060E02AF09A95A1
:10096000660F771F881FDAF7880F9695879597F996
:10097000089597F99F6780E870E060E008959FEF21
:1009800080EC089500240A94161617061806090626
:10099000089500240A9412161306140605060895F5
:1009A000092E0394000C11F4882352F0BB0F40F47D
:1009B000BF2B11F460FF04C06F5F7F4F8F4F9F4FBD
:1009C000089557FD9058440F551F59F05F3F71F03F
:1009D0004795880F97FB991F61F09F3F79F08795A6
:1009E0000895121613061406551FF2CF4695F1DF2F
:1009F00008C0161617061806991FF1CF86957105BF
:100A0000610508940895E894BB2766277727CB01F2
:100A100097F908950BD0C4CFB5DF28F0BADF18F0EE
:100A2000952309F0A6CFABCF1124EECFCADFA0F3F8
:100A3000959FD1F3950F50E0551F629FF001729F73
:100A4000BB27F00DB11D639FAA27F00DB11DAA1F92
:100A5000649F6627B00DA11D661F829F2227B00DDF
:100A6000A11D621F739FB00DA11D621F839FA00D6A
:100A7000611D221F749F3327A00D611D231F849FBA
:100A8000600D211D822F762F6A2F11249F57504011
:100A90008AF0E1F088234AF0EE0FFF1FBB1F661FAC
:100AA000771F881F91505040A9F79E3F510570F065
:100AB00060CFAACF5F3FECF3983EDCF38695779545
:100AC0006795B795F795E7959F5FC1F7FE2B880F60
:100AD000911D9695879597F908950F931F93CF933E
:100AE000DF938230910510F482E090E0E091910272
:100AF000F091920220E030E0C0E0D0E023C04081DD
:100B0000518148175907A8F04817590761F48281A5
:100B10009381209719F09B838A832EC09093920231
:100B20008093910229C02115310529F042175307FE
:100B300010F0A90102C0BE01DF0102811381EF01A3
:100B40009A01F8013097D9F62115310509F1281BD2
:100B5000390B2430310590F412968D919C911397A6
:100B60006115710521F0FB019383828304C090938A
:100B7000920280939102FD01329644C0FD01E20F82
:100B8000F31F81939193225031092D933C933AC0E6
:100B900020918F0230919002232B41F42091020189
:100BA000309103013093900220938F022091000135
:100BB000309101012115310541F42DB73EB7409127
:100BC000040150910501241B350BE0918F02F09137
:100BD0009002E217F307A0F42E1B3F0B28173907EA
:100BE00078F0AC014E5F5F4F2417350748F04E0F89
:100BF0005F1F5093900240938F028193919302C0A4
:100C0000E0E0F0E0CF01DF91CF911F910F910895C7
:100C1000EF92FF920F931F93CF93DF93009709F406
:100C20008FC0DC01129713961C921E921297E090CF
:100C30009102F0909202E114F10489F42D913C911B
:100C40001197280F391F80918F029091900282177F
:100C5000930789F5B0939002A0938F0271C0E701CA
:100C600020E030E001C0EA01CA17DB0738F44A810E
:100C70005B819E0141155105B1F722C0BC01625054
:100C80007109FB01D383C28300811181AC01400F44
:100C9000511F4C175D0761F448815981400F511F66
:100CA0004E5F5F4F518340834A815B815383428310
:100CB0002115310529F4B0939202A093910240C00E
:100CC000F901B383A283E90169917991C60FD71F16
:100CD000AC17BD0779F4DC015E914E91460F571FAA
:100CE0004E5F5F4F5183408312968D919C91139775
:100CF00093838283A0E0B0E002C0D7017C01F701BA
:100D0000828193810097C9F7C701029620813181C2
:100D1000820F931F20918F0230919002281739077C
:100D200079F4109729F4109292021092910204C063
:100D300013961C921E921297F0929002E0928F02EC
:100D4000DF91CF911F910F91FF90EF9008950F9336
:100D50001F93CF93DF93EC018B01009731F4611562
:100D6000710519F4E0E0F0E036C06EE070E081E07B
:100D700090E040D2FC010097A9F380E8838301153D
:100D8000110571F01387028781E8838380919302B4
:100D900090919402892B21F4F0939402E0939302B2
:100DA0002097C9F0D187C087838182608383809137
:100DB000950290919602892B71F4F0939602E0933C
:100DC00095028091970290919802892B21F4F093DB
:100DD0009802E0939702CF01DF91CF911F910F917D
:100DE0000895CF93DF93CDB7DEB7FE0135966191BD
:100DF0007191AF01809195029091960203D0DF919D
:100E0000CF9108952F923F924F925F926F927F926F
:100E10008F929F92AF92BF92CF92DF92EF92FF920A
:100E20000F931F93CF93DF93CDB7DEB72C970FB6F9
:100E3000F894DEBF0FBECDBF7C016B018A01FC01BF
:100E400017821682838181FFB9C188248394912CF3
:100E50008C0E9D1EF7019381F60193FD859193FF02
:100E600081916F01882309F4A5C1853239F493FD7E
:100E7000859193FF81916F01853221F4B70190E054
:100E8000F2D1E8CF512C312C20E02032A8F48B3263
:100E900061F028F4803251F0833271F40BC08D324E
:100EA00039F0803349F4216028C02260246025C0D5
:100EB000286023C0206121C027FD27C0382F305370
:100EC0003A3078F426FF06C0FAE05F9E300D112418
:100ED000532E13C08AE0389E300D1124332E206229
:100EE0000CC08E3221F426FD65C1206406C08C360C
:100EF00011F4206802C0883641F4F60193FD859113
:100F000093FF81916F018111C0CF982F9554933039
:100F100018F09052933028F40C5F1F4FFFE3F983D1
:100F20000DC0833631F0833771F0833509F05AC034
:100F300022C0F801808189830E5F1F4F44244394AF
:100F4000512C540114C03801F2E06F0E711CF801ED
:100F5000A080B18026FF03C0652D70E002C06FEF56
:100F60007FEFC5012C8774D12C0183012C856FE79D
:100F7000262E222217C03801F2E06F0E711CF801F4
:100F8000A080B18026FF03C0652D70E002C06FEF26
:100F90007FEFC5012C874AD12C012C8550E8252EE6
:100FA000222A830123FC1AC005C0B70180E290E029
:100FB0005AD13A94832D90E048165906B0F30EC0EA
:100FC000F50127FC859127FE81915F01B70190E033
:100FD0004AD131103A94F1E04F1A510841145104AA
:100FE00079F7E5C0843611F0893639F5F80127FF25
:100FF00007C060817181828193810C5F1F4F08C09F
:1010000060817181882777FD8095982F0E5F1F4F33
:101010004FE6B42EB22297FF09C090958095709547
:1010200061957F4F8F4F9F4FF0E8BF2A2AE030E055
:10103000A40145D1A82EA81842C0853731F43FEE4F
:10104000B32EB2222AE030E024C099EFB92EB222AA
:101050008F36B9F020F4883509F0ACC00DC0803768
:1010600021F0883709F0A6C002C020E1B22AB4FE00
:101070000BC084E0B82A08C024FF09C0E6E0BE2AFD
:1010800006C028E030E005C020E130E002C020E1E9
:1010900032E0F801B7FE07C06081718182819381DF
:1010A0000C5F1F4F06C06081718180E090E00E5F91
:1010B0001F4FA40104D1A82EA818FFE7BF22B6FE37
:1010C0000BC02B2D2E7FA51450F4B4FE0AC0B2FC29
:1010D00008C02B2D2E7E05C07A2C2B2D03C07A2C18
:1010E00001C0752C24FF0DC0FE01EA0DF11D8081A9
:1010F000803311F4297E09C022FF06C073947394D3
:1011000004C0822F867809F0739423FD13C020FF5A
:101110000EC05A2C731458F4530C5718732C07C074
:10112000B70180E290E02C879ED073942C857314D5
:10113000B8F304C0731410F4371801C0312C24FF25
:1011400011C0B70180E390E02C878DD02C8522FF61
:101150001CC021FF03C088E590E002C088E790E052
:10116000B7010CC0822F867881F021FD02C080E299
:1011700001C08BE227FD8DE2B70190E074D005C07D
:10118000B70180E390E06FD05A94A514C8F3AA94F5
:10119000F401EA0DF11DB701808190E064D0A11047
:1011A000F6CF05C0B70180E290E05DD03A943110EF
:1011B000F9CF50CEF7012681378102C02FEF3FEFE4
:1011C000C9012C960FB6F894DEBF0FBECDBFDF91DC
:1011D000CF911F910F91FF90EF90DF90CF90BF9034
:1011E000AF909F908F907F906F905F904F903F90C7
:1011F0002F9008950F931F93CF93DF93689F8001E3
:10120000699F100D789F100D1124C80166DCC82F4E
:10121000D92F209729F0A80160E070E08C2F11D021
:10122000CE01DF91CF911F910F910895FC010590A0
:10123000615070400110D8F7809590958E0F9F1FD8
:101240000895DC0101C06D9341505040E0F70895CE
:10125000FC016150704001900110D8F78095909585
:101260008E0F9F1F08950F931F93CF93DF938C01D1
:10127000EB018B8181FD03C00FEF1FEF1AC082FFCE
:101280000DC02E813F818C819D812817390764F420
:10129000E881F9810193F983E88306C0E885F9853F
:1012A000802F0995892B41F78E819F8101969F831D
:1012B0008E83C801DF91CF911F910F910895FA019C
:1012C000AA27283051F1203181F1E8946F936E7F85
:1012D0006E5F7F4F8F4F9F4FAF4FB1E03ED0B4E076
:1012E0003CD0670F781F891F9A1FA11D680F791FB7
:1012F0008A1F911DA11D6A0F711D811D911DA11DC8
:1013000020D009F468943F912AE0269F11243019D7
:10131000305D3193DEF6CF010895462F4770405D72
:101320004193B3E00FD0C9F7F6CF462F4F70405D21
:101330004A3318F0495D31FD4052419302D0A9F77C
:10134000EACFB4E0A6959795879577956795BA9576
:10135000C9F700976105710508959B01AC010A2E3C
:1013600006945795479537952795BA95C9F7620F13
:0E137000731F841F951FA01D0895F894FFCFD2
:10137E00000099022000F84368616E676564206D75
:10138E006F746F72204449520A0D00577269746966
:10139E006E67206D6F746F72207370656564207652
:1013AE00616C75653A202569200A0D004441432081
:1013BE00696E7469617465640A0D00456E61626CD4
:1013CE006564206D6F746F72200A0D002D2D2D2D0A
:1013DE005541525420776F726B696E672D2D2D2DEE
:1013EE000A0D002D2D2D2D43414E20776F726B6906
:1013FE006E672D2D2D2D0A0D002D2D2D2D43414EB9
:10140E00206572726F7221212D2D2D2D0A0D002D4A
:10141E002D2D2D50574D20776F726B696E672D2DC8
:10142E002D2D0A0D002D2D2D2D50574D206572722C
:10143E006F7221212D2D2D2D0A0D002D2D2D2D41BB
:10144E00444320776F726B696E672D2D2D2D0A0D1B
:10145E00002D2D2D2D414443206572726F72212176
:10146E002D2D2D2D0A0D002D2D2D2D4D6F746F72DE
:10147E0020636F6E74726F6C20776F726B696E671C
:10148E002D2D2D2D0A0D002D2D2D2D53686F6F74C2
:10149E00657220776F726B696E672D2D2D2D0A0D7B
:1014AE00004461746120313A202569004461746101
:1014BE0020323A202563004461746120333A20259E
:1014CE00630A0D004D435032353135206973204E7D
:1014DE004F5420696E20636F6E6669677572617412
:1014EE00696F6E206D6F646520616674657220721F
:0614FE0065736574210016
:00000001FF
